:100000000C945D000C9485000C9485000C94850084
:100010000C9485000C9485000C9485000C9485004C
:100020000C9485000C9485000C9485000C9485003C
:100030000C9485000C9485000C9485000C9485002C
:100040000C94C0030C9485000C9430040C940A04A6
:100050000C9485000C9485000C9485000C9485000C
:100060000C9485000C9485000000000024002700FB
:100070002A0000000000250028002B0004040404CE
:100080000404040402020202020203030303030342
:10009000010204081020408001020408102001021F
:1000A00004081020000000080002010000030407FB
:1000B00000000000000000000A0611241FBECFEF60
:1000C000D8E0DEBFCDBF21E0A8E3B1E001C01D92C2
:1000D000A63EB207E1F711E0A0E0B1E0EEECFFE0F0
:1000E00002C005900D92A833B107D9F710E0CDE515
:1000F000D0E004C02197FE010E94DA07CC35D10779
:10010000C9F70E9462040C94E5070C94000090E08B
:10011000FC01EC55FF4F2491FC01E057FF4F349157
:10012000FC01E458FF4FE491EE2309F43CC0222384
:1001300039F1233091F038F42130A9F0223001F563
:1001400084B58F7D12C0273091F02830A1F0243083
:10015000B9F4809180008F7D03C0809180008F77FB
:10016000809380000DC084B58F7784BD09C08091D5
:10017000B0008F7703C08091B0008F7D8093B00076
:10018000F0E0EE0FFF1FEE58FF4FA591B4919FB71F
:10019000F894611104C08C913095382302C0EC9121
:1001A0003E2B3C939FBF0895CF93DF9390E0FC01DB
:1001B000E057FF4F2491FC01E458FF4F84918823BE
:1001C00061F190E0880F991FFC01E859FF4FC5913C
:1001D000D491FC01EE58FF4FA591B491611109C073
:1001E0009FB7F8948881209582238883EC912E23F1
:1001F0000BC0623061F49FB7F8948881322F30953C
:1002000083238883EC912E2B2C939FBF06C08FB73E
:10021000F894E8812E2B28838FBFDF91CF9108952A
:100220003FB7F8948091450190914601A091470114
:10023000B091480126B5A89B05C02F3F19F0019643
:10024000A11DB11D3FBFBA2FA92F982F8827820F5C
:10025000911DA11DB11DBC01CD0142E0660F771FAC
:10026000881F991F4A95D1F70895CF92DF92EF9298
:10027000FF920F931F93CF93DF936C017A018B0151
:10028000C0E0D0E0CE15DF0581F0D8016D918D0181
:10029000D601ED91FC910190F081E02DC601099508
:1002A000892B11F02196EECF7E01C701DF91CF910E
:1002B0001F910F91FF90EF90DF90CF9008950895D8
:1002C00080E090E00895FC01538D448D252F30E0AF
:1002D000842F90E0821B930B541710F0CF96089553
:1002E00001970895FC01918D828D981761F0828DA0
:1002F000DF01A80FB11D5D968C91928D9F5F9F735A
:10030000928F90E008958FEF9FEF0895FC01918DFB
:10031000828D981731F0828DE80FF11D858D90E068
:1003200008958FEF9FEF0895FC01918D228D892F05
:1003300090E0805C9F4F821B91098F7399270895ED
:1003400089E491E00E94940121E0892B09F420E0E6
:10035000822F0895FC01848DDF01A80FB11DA35ADF
:10036000BF4F2C91848D90E001968F739927848FD5
:10037000A689B7892C93A089B1898C9183708064F8
:100380008C93938D848D981306C00288F389E02D99
:1003900080818F7D80830895EF92FF920F931F934A
:1003A000CF93DF93EC0181E0888F9B8D8C8D981328
:1003B00005C0E889F989808185FD26C0F62E0B8D60
:1003C00010E00F5F1F4F0F731127E02E8C8DE81286
:1003D0000CC00FB607FCFACFE889F989808185FF48
:1003E000F5CFCE010E94AA01F1CF8B8DFE01E80F5F
:1003F000F11DE35AFF4FF0829FB7F8940B8FEA8903
:10040000FB89808180620AC09FB7F894EE89FF89DA
:100410006083E889F98980818370806480839FBFCD
:1004200081E090E0DF91CF911F910F91FF90EF90CD
:100430000895CF93DF93EC01888D8823C9F0EA8972
:10044000FB89808185FD05C0A889B9898C9186FDCD
:100450000FC00FB607FCF5CF808185FFF2CFA889CA
:10046000B9898C9185FFEDCFCE010E94AA01E7CF1B
:10047000DF91CF91089580E090E0892B29F00E94D0
:10048000A00181110C9400000895DF92EF92FF9279
:100490000F931F93CF93DF93D82EEB01E12CF12C18
:1004A0000BE11CE1811154C0EC16FD060CF0A4C058
:1004B00061E082E00E94870060E084E00E948700A3
:1004C00060E08CE00E94870061E08DE00E94870080
:1004D000C8010197F1F761E082E00E94870060E0C7
:1004E00084E00E94870061E08CE00E94870060E069
:1004F0008DE00E948700C8010197F1F760E082E07B
:100500000E94870061E084E00E94870061E08CE047
:100510000E94870060E08DE00E948700C80101977B
:10052000F1F760E082E00E94870061E084E00E94D1
:10053000870060E08CE00E94870061E08DE00E940F
:100540008700C8010197F1F72FEFE21AF20AACCF4A
:10055000EC16FD060CF050C060E082E00E948700BF
:1005600061E084E00E94870060E08CE00E948700E8
:1005700061E08DE00E948700C8010197F1F760E01B
:1005800082E00E94870061E084E00E94870061E0D1
:100590008CE00E94870060E08DE00E948700C80127
:1005A0000197F1F761E082E00E94870060E084E05B
:1005B0000E94870061E08CE00E94870060E08DE08F
:1005C0000E948700C8010197F1F761E082E00E9474
:1005D000870060E084E00E94870060E08CE00E9479
:1005E000870061E08DE00E948700C8010197F1F764
:1005F0003FEFE31AF30AACCF60E082E00E9487008D
:1006000060E084E00E94870060E08CE00E94870048
:1006100060E08DE00E94870080913801909139015F
:10062000D11005C09C012C1B3D0BE90102C0C80F75
:10063000D91FD0933901C0933801DF91CF911F9119
:100640000F91FF90EF90DF9008957F928F929F928D
:10065000AF92BF92CF92DF92EF92FF920F931F93D0
:10066000CF93DF93782EEB0160E089E00E94870052
:10067000672D88E00E9487000E9410014B015C01F9
:100680009AE0C92ED12CE12CF12C0E941001DC0142
:10069000CB0188199909AA09BB09883E9340A10595
:1006A000B10598F321E0C21AD108E108F10888EEFB
:1006B000880E83E0981EA11CB11CC114D104E10472
:1006C000F10419F700E010E08BE7E82E8CE0F82E3B
:1006D00061E00C171D0784F487E00E948700C701C2
:1006E0000197F1F760E087E00E948700C70101975A
:1006F000F1F70F5F1F4FECCF89E00E9487006091F8
:100700003A0170913B01711003C06C0F7D1F02C054
:100710006C1B7D0B70933B0160933A01DF91CF918D
:100720001F910F91FF90EF90DF90CF90BF90AF900F
:100730009F908F907F900895CF93DF93009779F0EB
:10074000FC0101900020E9F73197AF01481B590BDC
:10075000BC0189E491E00E943501EC0102C0C0E0D7
:10076000D0E042E050E062E171E089E491E00E9473
:1007700035018C0F9D1FDF91CF9108950E94E007F6
:100780001F920F920FB60F9211242F933F938F93C6
:100790009F93AF93BF938091410190914201A091AB
:1007A0004301B09144013091400123E0230F2D37E4
:1007B00020F40196A11DB11D05C026E8230F029665
:1007C000A11DB11D209340018093410190934201EE
:1007D000A0934301B093440180914501909146015B
:1007E000A0914701B09148010196A11DB11D8093D0
:1007F000450190934601A0934701B0934801BF91F2
:10080000AF919F918F913F912F910F900FBE0F90BD
:100810001F9018951F920F920FB60F9211242F93CD
:100820003F934F935F936F937F938F939F93AF9378
:10083000BF93EF93FF9389E491E00E94AA01FF9197
:10084000EF91BF91AF919F918F917F916F915F9148
:100850004F913F912F910F900FBE0F901F901895C1
:100860001F920F920FB60F9211242F938F939F9385
:10087000EF93FF93E0915901F0915A018081E0914B
:100880005F01F091600182FD12C090818091620150
:100890008F5F8F7320916301821751F0E0916201A5
:1008A000F0E0E75BFE4F958F8093620101C080818D
:1008B000FF91EF919F918F912F910F900FBE0F900D
:1008C0001F901895789484B5826084BD84B581604A
:1008D00084BD85B5826085BD85B5816085BD80910B
:1008E0006E00816080936E00109281008091810083
:1008F000826080938100809181008160809381007B
:10090000809180008160809380008091B10084603C
:100910008093B1008091B00081608093B00080919D
:100920007A00846080937A0080917A00826080935C
:100930007A0080917A00816080937A0080917A00B9
:10094000806880937A001092C100E0915901F09183
:100950005A0182E08083E0915501F09156011082A6
:10096000E0915701F09158018FEC80831092610162
:10097000E0915D01F0915E0186E08083E0915B0192
:10098000F0915C01808180618083E0915B01F09156
:100990005C01808188608083E0915B01F0915C0163
:1009A000808180688083E0915B01F0915C018081AF
:1009B0008F7D808361E088E00E94D40061E087E061
:1009C0000E94D40061E089E00E94D40060E08BE0E6
:1009D0000E94D40061E082E00E94D40061E084E0E3
:1009E0000E94D40061E08CE00E94D40061E08DE0C0
:1009F0000E94D40060E08AE00E94D40001E010E090
:100A000089E491E00E949401892B09F444C0CEE36B
:100A1000D1E02FB7F8948091410190914201A091CB
:100A20004301B09144012FBF809351019093520133
:100A3000A0935301B093540189E491E00E947201A4
:100A400097FFE1C02FB7F894809141019091420146
:100A5000A0914301B09144012FBF409151015091A9
:100A600052016091530170915401841B950BA60BA8
:100A7000B70B40914D0150914E0160914F01709123
:100A8000500184179507A607B707B0F210933D01F0
:100A900000933C01B5CF80913C0190913D010197BD
:100AA00009F0AEC080913E018134C1F460913F01F4
:100AB000062E000C770B880B990B0E94390620EE4E
:100AC0003CE941E95DE30E9432070E94A40781E00E
:100AD0000E94250385E191E00E949C0380913E01E4
:100AE0008234C1F460913F01062E000C770B880B15
:100AF000990B0E94390620EE3CE941E95DE30E9432
:100B000032070E94A40780E00E9425038AE191E059
:100B10000E949C0380913E018334C1F460913F01A7
:100B2000062E000C770B880B990B0E94390620E0EB
:100B300030E040E051E40E9474060E94A40781E086
:100B40000E9445028FE191E00E949C0380913E014A
:100B50008434C1F460913F01062E000C770B880BA2
:100B6000990B0E94390620E030E040E051E40E94F9
:100B700074060E94A40780E00E94450284E291E08E
:100B80000E949C0380913E01853459F460913A01A2
:100B900070913B0181E00E94250389E291E00E946F
:100BA0009C0380913E01863459F460913801709124
:100BB000390180E00E9445028EE291E00E949C0390
:100BC00080913E018335C1F460E082E00E9487009D
:100BD00060E084E00E94870060E08CE00E94870073
:100BE00060E08DE00E94870061E089E00E9487005C
:100BF00083E391E00E949C0310923D0110923C011E
:100C00000E943B02FDCE899381E0C034D80709F0F1
:100C100000CF3CCFE9E4F1E01382128288EE93E04A
:100C2000A0E0B0E084839583A683B78384E091E05D
:100C30009183808385EC90E09587848784EC90E0B5
:100C40009787868780EC90E0918B808B81EC90E099
:100C5000938B828B82EC90E0958B848B86EC90E07A
:100C6000978B868B118E128E138E148E0895E894B6
:100C700009C097FB3EF490958095709561957F4FE4
:100C80008F4F9F4F9923A9F0F92F96E9BB27939592
:100C9000F695879577956795B795F111F8CFFAF4A2
:100CA000BB0F11F460FF1BC06F5F7F4F8F4F9F4FD3
:100CB00016C0882311F096E911C0772321F09EE831
:100CC000872F762F05C0662371F096E8862F70E097
:100CD00060E02AF09A95660F771F881FDAF7880F71
:100CE0009695879597F908950E9487060C94F806C3
:100CF0000E94EA0638F00E94F10620F0952311F0D8
:100D00000C94E1060C94E70611240C942C070E9425
:100D1000090770F3959FC1F3950F50E0551F629F2F
:100D2000F001729FBB27F00DB11D639FAA27F00D44
:100D3000B11DAA1F649F6627B00DA11D661F829F6B
:100D40002227B00DA11D621F739FB00DA11D621F50
:100D5000839FA00D611D221F749F3327A00D611D6D
:100D6000231F849F600D211D822F762F6A2F11244F
:100D70009F5750409AF0F1F088234AF0EE0FFF1F82
:100D8000BB1F661F771F881F91505040A9F79E3FD9
:100D9000510580F00C94E1060C942C075F3FE4F3BE
:100DA000983ED4F3869577956795B795F795E7952F
:100DB0009F5FC1F7FE2B880F911D9695879597F938
:100DC000089597F99F6780E870E060E008959FEFCD
:100DD00080EC089500240A941616170618060906D2
:100DE000089500240A9412161306140605060895A1
:100DF000092E0394000C11F4882352F0BB0F40F429
:100E0000BF2B11F460FF04C06F5F7F4F8F4F9F4F68
:100E1000089557FD9058440F551F59F05F3F71F0EA
:100E20004795880F97FB991F61F09F3F79F0879551
:100E30000895121613061406551FF2CF4695F1DFDA
:100E400008C0161617061806991FF1CF869571056A
:100E5000610508940895E894BB2766277727CB019E
:100E600097F908950E9446070C94F8060E94F1062F
:100E700058F00E94EA0640F029F45F3F29F00C94F4
:100E8000E10651110C942C070C94E7060E94090707
:100E900068F39923B1F3552391F3951B550BBB27A9
:100EA000AA2762177307840738F09F5F5F4F220FEE
:100EB000331F441FAA1FA9F335D00E2E3AF0E0E8E5
:100EC00032D091505040E695001CCAF72BD0FE2F2F
:100ED00029D0660F771F881FBB1F261737074807C3
:100EE000AB07B0E809F0BB0B802DBF01FF2793587B
:100EF0005F4F3AF09E3F510578F00C94E1060C9458
:100F00002C075F3FE4F3983ED4F386957795679579
:100F1000B795F7959F5FC9F7880F911D96958795AF
:100F200097F90895E1E0660F771F881FBB1F6217CE
:100F300073078407BA0720F0621B730B840BBA0B8C
:100F4000EE1F88F7E09508950E94AB076894B111F1
:100F50000C942C0708950E94110788F09F5798F071
:100F6000B92F9927B751B0F0E1F0660F771F881FAE
:100F7000991F1AF0BA95C9F714C0B13091F00E94C8
:100F80002B07B1E008950C942B07672F782F882743
:100F9000B85F39F0B93FCCF3869577956795B395EF
:100FA000D9F73EF490958095709561957F4F8F4F5E
:100FB0009F4F0895EE0FFF1F0590F491E02D0994C7
:0E0FC00081E090E0F8940C94E507F894FFCFE0
:100FCE0000000000CC013501630119029401720189
:100FDE0086010D0A004F4B2D41004F4B2D42004F05
:100FEE004B2D43004F4B2D44004F4B2D45004F4B87
:080FFE002D46004F4B2D53005E
:00000001FF
