:10000000BEC10000EDC10000EBC10000E9C100006D
:10001000E7C10000E5C10000E3C10000E1C100004C
:10002000DFC10000DDC10000DBC10000D9C100005C
:10003000D7C10000D5C10000D3C10000D1C100006C
:10004000CFC10000CDC10000CBC10000C9C100007C
:10005000C7C10000C5C10000C3C100000C94B609AF
:10006000BFC1000001C40000D6C30000B9C1000038
:10007000B7C10000B5C10000B3C10000B1C10000AC
:10008000AFC10000ADC10000ABC10000A9C10000BC
:10009000A7C10000A5C10000A3C100001BC400004F
:1000A0009FC100009DC100009BC1000099C10000DC
:1000B00097C1000095C1000093C1000091C10000EC
:1000C0008FC100008DC100008BC100006EC3000015
:1000D00043C3000085C1000083C1000081C100004E
:1000E0007FC100008508880877087B088108BF0861
:1000F0008C08900896089A089E08A408A808AC08DE
:10010000BF08B208B608BA084E414E494E49545984
:10011000494E46CDCCCC3D0AD7233C17B7D13877D2
:10012000CC2B329595E6241FB14F0A0000204100E8
:1001300000C84200401C4620BCBE4CCA1B0E5AAE32
:10014000C59D742C457869742043616C6962726145
:1001500074696F6E204D6F64653C3C3C003E3E3ED2
:1001600043616C6962726174696F6E204661696C8B
:100170006564003E3E3E43616C6962726174696F02
:100180006E205375636365737366756C2C4B2056D4
:10019000616C7565205361766564003E3E3E436F39
:1001A0006E6669726D204661696C65642C54727963
:1001B00020416761696E3C3C3C002C2053656E64B5
:1001C000204558495420746F205361766520616E34
:1001D0006420457869743C3C3C003E3E3E436F6E73
:1001E0006672696D205375636365737366756C2CF5
:1001F0004B3A003E3E3E506C6561736520707574ED
:10020000207468652070726F626520696E746F205B
:10021000746865207374616E6461726420627566CF
:1002200066657220736F6C7574696F6E3C3C3C0040
:100230003E3E3E456E7465722043616C6962726138
:1002400074696F6E204D6F64653C3C3C00436F6D7C
:100250006D616E64204572726F7200000020002391
:1002600000260029002C002F0032000001000003AE
:10027000010601090100002100240027002A002DA9
:10028000003000330001010000040107010A0100F1
:10029000002200250028002B002E0031003400022F
:1002A000010000050108010B01050505050705080A
:1002B000080808020202020A0A08080404040401E9
:1002C000010101010101010303030303030303040B
:1002D0000707070C0C0C0C0C0C0C0C02020202069B
:1002E000060606060606060B0B0B0B0B0B0B0B018B
:1002F0000210202008081020401020408002010237
:1003000001080402010102040810204080804020FE
:100310001008040201800402018040201008040239
:1003200001080402010102040810204080010204B7
:10033000081020408000000A0B02090C0D0E08076F
:1003400003040100000000000000000000000000A5
:10035000000000000000000000000000000000009D
:10036000001211100000000000000000000000005A
:1003700000000000000000000000000077101124C1
:100380001FBECFEFD1E2DEBFCDBF00E00CBF25E046
:10039000AEEEB2E001C01D92AA32B207E1F712E060
:1003A000A0E0B2E0E0E3FAE200E00BBF02C0079099
:1003B0000D92AE3EB107D9F711E0CFEBD1E000E0EE
:1003C00006C021970109802FFE010E94F014CE3B48
:1003D000D10780E00807A9F70E94000A0C941615BF
:1003E0000FCECF92DF92EF92FF920F931F93CF9396
:1003F000DF936C017A018B01C0E0D0E0CE15DF0500
:1004000081F0D8016D918D01D601ED91FC910190A3
:10041000F081E02DC6011995892B11F02196EECFC0
:100420007E01C701DF91CF911F910F91FF90EF9057
:10043000DF90CF900895FC01538D448D252F30E03F
:10044000842F90E0821B930B541710F0CF960895E1
:1004500001970895FC01918D828D981761F0828D2E
:10046000DF01A80FB11D5D968C91928D9F5F9F73E8
:10047000928F90E008958FEF9FEF0895FC01918D8A
:10048000828D981731F0828DE80FF11D858D90E0F7
:1004900008958FEF9FEF0895FC01918D228D892F94
:1004A00090E0805C9F4F821B91098F73992708957C
:1004B00080EA93E0F1DF21E0892B09F420E0822F2C
:1004C00008958DE394E0E8DF21E0892B09F420E032
:1004D000822F0895FC01848DDF01A80FB11DA35A5E
:1004E000BF4F2C91848D90E001968F739927848F54
:1004F000A689B7892C93A089B1898C918370806477
:100500008C93938D848D981306C00288F389E02D17
:1005100080818F7D80830895EF92FF920F931F93C8
:10052000CF93DF93EC0181E0888F9B8D8C8D9813A6
:1005300005C0E889F989808185FD25C0F62E0B8DDF
:1005400010E00F5F1F4F0F731127E02E8C8DE81204
:100550000BC00FB607FCFACFE889F989808185FFC7
:10056000F5CFCE01B7DFF2CF8B8DFE01E80FF11D85
:10057000E35AFF4FF0829FB7F8940B8FEA89FB890B
:10058000808180620AC09FB7F894EE89FF896083FA
:10059000E889F98980818370806480839FBF81E0CE
:1005A00090E0DF91CF911F910F91FF90EF90089510
:1005B000CF93DF93EC01888D8823C1F0EA89FB8912
:1005C000808185FD05C0A889B9898C9186FD0EC002
:1005D0000FB607FCF5CF808185FFF2CFA889B989D6
:1005E0008C9185FFEDCFCE0175DFE8CFDF91CF9104
:1005F000089580E090E0892B19F063DF811120C01D
:1006000080E090E0892B41F080E090E0892B21F0A0
:100610000E940000811117C080E090E0892B19F042
:1006200047DF811113C080E090E0892BA1F080E0CA
:1006300090E0892B81F00E94000081110AC008958A
:100640000E940000DDCF0E940000E6CF0E94000063
:10065000EACF0C940000089585ED8093BC00809152
:10066000BC0084FDFCCF1092F40208954091590320
:10067000262F30E0240F311D21323105DCF420918A
:10068000F4022430C9F4FC0180E090E0861758F4AD
:10069000309159032191DC01A75CBC4FA30FB11D20
:1006A0002C930196F3CF80915903680F60935903FF
:1006B00080E0089581E0089582E008950895089506
:1006C0000895E091F8028091F702E81730F4F0E025
:1006D000E75EFC4F808190E008958FEF9FEF0895D3
:1006E0009091F8028091F702981750F4E92FF0E00A
:1006F000E75EFC4F208130E09F5F9093F80202C0DC
:100700002FEF3FEFC90108958091F70290E020910B
:10071000F802821B91090895CF93DF93CB01EA0180
:10072000642FA4DFCE01DF91CF910895CF93DF93A3
:100730001F92CDB7DEB7698361E0CE01019696DFE7
:1007400081E090E00F90DF91CF910895089580E0CF
:1007500090E008950E94F8141F920F920FB60F9226
:1007600011240BB60F922F933F934F935F936F9388
:100770007F938F939F93AF93BF93EF93FF9380EA01
:1007800093E0A8DEFF91EF91BF91AF919F918F9180
:100790007F916F915F914F913F912F910F900BBE81
:1007A0000F900FBE0F901F9018951F920F920FB6CB
:1007B0000F9211240BB60F922F938F939F93EF9369
:1007C000FF93E091B003F091B1038081E091B60313
:1007D000F091B70382FD12C090818091B9038F5FC1
:1007E0008F732091BA03821751F0E091B903F0E0C2
:1007F000E056FC4F958F8093B90301C08081FF9133
:10080000EF919F918F912F910F900BBE0F900FBE84
:100810000F901F9018951F920F920FB60F921124F0
:100820000BB60F922F933F934F935F936F937F93EA
:100830008F939F93AF93BF93EF93FF938DE394E0D8
:1008400049DEFF91EF91BF91AF919F918F917F9181
:100850006F915F914F913F912F910F900BBE0F9031
:100860000FBE0F901F9018951F920F920FB60F9208
:1008700011240BB60F922F938F939F93EF93FF93B7
:10088000E0914D04F0914E048081E0915304F09189
:10089000540482FD12C09081809156048F5F8F7343
:1008A00020915704821751F0E0915604F0E0E35C88
:1008B000FB4F958F8093560401C08081FF91EF918B
:1008C0009F918F912F910F900BBE0F900FBE0F90A5
:1008D0001F9018951F920F920FB60F9211240BB60E
:1008E0000F922F933F934F935F936F937F938F93C9
:1008F0009F93AF93BF93EF93FF938091B900887F4D
:10090000803609F49CC068F5883209F45BC090F425
:10091000803109F454C038F4882309F4F6C08830D3
:1009200009F44DC0F5C0883109F44CC0803209F497
:100930005DC0EEC0803409F468C048F4803309F427
:1009400055C0883309F0E4C080937C03D8C080355B
:1009500009F44FC0883509F45DC0883409F0D8C067
:10096000D6C0883909F4C7C0A8F4883709F467C02D
:1009700038F4883609F463C0803709F460C0C8C011
:10098000883809F4B8C0803909F45FC0803809F0AC
:10099000BFC05BC0803B09F486C038F4803A09F4DC
:1009A00066C0883A09F47FC0B3C0803C09F4A7C090
:1009B000883C09F4A4C0883B09F48AC0A9C080918E
:1009C0009F0310C090919E0380919D03981770F52E
:1009D000E0919E0381E08E0F80939E03F0E0E35848
:1009E000FC4F80818093BB0085EC86C080937C03A4
:1009F0008EC0E0919E0381E08E0F80939E038091D4
:100A0000BB00F0E0E358FC4F808390919E038091FF
:100A10009D036EC0E0919E0381E08E0F80939E0344
:100A20008091BB00F0E0E358FC4F80838091F3029B
:100A300081116DC081E08093F20284EA61C083E09D
:100A40008093F40210927B03CFCF80917B0380329E
:100A500008F051C0E0917B0381E08E0F80937B030F
:100A60008091BB00F0E0E55AFC4F8083BDCF85EC60
:100A70008093BC001092F40280917B03803230F4AA
:100A8000E0917B03F0E0E55AFC4F108260917B031C
:100A900070E0E091EE02F091EF028BE593E01995A2
:100AA00010927B0335C084E08093F40210925A03C5
:100AB00010925903E091F002F091F10219958091A2
:100AC0005903811105C081E08093590310923903C5
:100AD000E0915A0381E08E0F80935A03F0E0E75CC7
:100AE000FC4F80818093BB0090915A038091590301
:100AF000981708F479CF85E88093BC0009C085EC8D
:100B00008093BC001092F40203C010927C03A4DD19
:100B1000FF91EF91BF91AF919F918F917F916F91D5
:100B20005F914F913F912F910F900BBE0F900FBE91
:100B30000F901F9018950C949913EF92FF920F93BA
:100B40001F93CF93DF937B0100E010E0CBE1DCE16A
:100B500081114CC00E151F050CF094C061E082E0BD
:100B60000FD360E083E00CD360E084E009D361E060
:100B700085E006D3CE010197F1F761E082E000D372
:100B800060E083E0FDD261E084E0FAD260E085E0DD
:100B9000F7D2CE010197F1F760E082E0F1D261E097
:100BA00083E0EED261E084E0EBD260E085E0E8D261
:100BB000CE010197F1F760E082E0E2D261E083E0EC
:100BC000DFD260E084E0DCD261E085E0D9D2CE0102
:100BD0000197F1F78091F9029091FA0201979093B1
:100BE000FA028093F9020F5F1F4FB4CF0E151F0555
:100BF0000CF048C060E082E0C3D261E083E0C0D284
:100C000060E084E0BDD261E085E0BAD2CE01019718
:100C1000F1F760E082E0B4D261E083E0B1D261E05C
:100C200084E0AED260E085E0ABD2CE010197F1F76F
:100C300061E082E0A5D260E083E0A2D261E084E0DE
:100C40009FD260E085E09CD2CE010197F1F761E090
:100C500082E096D260E083E093D260E084E090D2BC
:100C600061E085E08DD2CE010197F1F78091F90224
:100C70009091FA0201969093FA028093F9020F5F25
:100C80001F4FB4CF60E082E07BD260E083E078D297
:100C900060E084E075D260E085E0DF91CF911F9144
:100CA0000F91FF90EF906CC2CF92DF92FF920F9363
:100CB0001F93CF93DF93F82EEB0160E089E060D2C1
:100CC0006F2D88E05DD26AE070E080E090E0E1D2D4
:100CD00000E010E08BE7C82E8CE0D82E0C171D0723
:100CE0007CF461E087E04CD2C6010197F1F760E047
:100CF00087E046D2C6010197F1F70F5F1F4FEECF95
:100D00006091FB027091FC02F11003C06C0F7D1F1B
:100D100002C06C1B7D0B7093FC026093FB02DF91A1
:100D2000CF911F910F91FF90DF90CF9008953FB723
:100D3000F8948091240590912505A0912605B09105
:100D4000270526B5A89B05C02F3F19F00196A11DC8
:100D5000B11D3FBFBA2FA92F982F8827820F911D51
:100D6000A11DB11DBC01CD0142E0660F771F881F98
:100D7000991F4A95D1F70895CF92DF92EF92FF9293
:100D8000CF93DF93EC016A017B01E889F98982E066
:100D900080834115514E61057105B1F060E079E045
:100DA0008DE390E0A70196010E94CE14DA01C901FB
:100DB0000197A109B109B695A795979587959C01CB
:100DC000211580E13807A8F0E889F989108260E8E8
:100DD00074E88EE190E0A70196010E94CE14DA013A
:100DE000C9010197A109B109B695A795979587956E
:100DF0009C01EC85FD853083EE85FF852083188E70
:100E0000EC89FD8986E08083EA89FB8980818061A5
:100E10008083EA89FB89808188608083EA89FB89F5
:100E2000808180688083EA89FB8980818F7D8083CF
:100E3000DF91CF91FF90EF90DF90CF9008950097D2
:100E400061F0FC0101900020E9F73197AF01481BE8
:100E5000590BBC018DE394E0C4CA80E090E0089592
:100E60008FED92E0ECCF0F931F93CF93DF938C0124
:100E7000C0E0D0E0F801EC0FFD1F6491662339F06B
:100E80008DE394E049DB892B11F02196F3CFCE015D
:100E9000DF91CF911F910F910895CF93DF93E3DFFF
:100EA000EC01DEDF8C0F9D1FDF91CF9108958F92B3
:100EB0009F92AF92BF920F931F93CF93DF93CDB7C3
:100EC000DEB7A1970FB6F894DEBF0FBECDBF19A253
:100ED000423008F44AE08E010F5D1F4F842E912CA2
:100EE000A12CB12CA50194010E94CE14E62FB901CA
:100EF000CA0101501109EA3014F4E05D01C0E95C57
:100F0000D801EC93232B242B252B61F7C80197DF05
:100F1000A1960FB6F894DEBF0FBECDBFDF91CF9183
:100F20001F910F91BF90AF909F908F9008954F9217
:100F30005F926F927F928F929F92AF92BF92CF9269
:100F4000DF92EF92FF926B017C019B01AC010E944A
:100F5000CA14882319F082EE92E027C04601570197
:100F6000E894B7F82FEF3FEF4FE75FE7C501B40113
:100F70000E94CA1481110DC02FEF3FEF4FE75FE7CA
:100F8000C501B4010E947D1218161CF486EE92E091
:100F90000CC02FEF3FEF4FE75FE4C701B6010E949F
:100FA000C61418167CF48AEE92E0FF90EF90DF9062
:100FB000CF90BF90AF909F908F907F906F905F90F9
:100FC0004F903DCF2FEF3FEF4FE75FECC701B601EA
:100FD0000E947D1287FDE7CF20E030E0A901C70124
:100FE000B6010E947D1287FF0AC06DE28DE394E096
:100FF00093DA5C01F7FAF094F7F8F09402C0A12CB0
:10100000B12C2AE037ED43EA5BE3C701B6010E9449
:10101000C9132B013C010E949A146B017C010E94B0
:1010200081129B01AC01C301B2010E94C8132B01C4
:101030003C014AE0C701B6013ADF7C01EA0CFB1C27
:101040006EE28DE394E068DAE80EF91E20E030E00D
:1010500040E251E4C301B2010E94E2122B013C01C3
:101060000E949A144B01A12CB12C4AE0C501B40195
:101070001EDFE80EF91EC501B4010E9481129B011A
:10108000AC01C301B2010E94C81320E030E040E28D
:1010900051E40E94E2120E949A1480E090E04AE03B
:1010A00006DF8E0D9F1DFF90EF90DF90CF90BF90D9
:1010B000AF909F908F907F906F905F904F9008952A
:1010C000CF93DF93BCDEEC01CBDE8C0F9D1FDF9155
:1010D000CF91089590E0FC013197E231F10508F0DD
:1010E0004EC08827EE58FF4F8F4F0C94F01480911C
:1010F00080008F7703C0809180008F7D8093800077
:10110000089580918000877FF9CF84B58F7702C0E2
:1011100084B58F7D84BD08958091B0008F7703C022
:101120008091B0008F7D8093B000089580919000F1
:101130008F7707C0809190008F7D03C080919000D1
:10114000877F8093900008958091A0008F7707C0DB
:101150008091A0008F7D03C08091A000877F809345
:10116000A0000895809120018F7707C08091200111
:101170008F7D03C080912001877F80932001089597
:101180001F93CF93DF93282F30E0F901EB5CFC4FE6
:101190008491F901E151FD4FD491F901E755FD4FDB
:1011A000C491CC23B9F0162F811194DFEC2FF0E01D
:1011B000EE0FFF1FE157FD4FA591B4919FB7F89433
:1011C000111104C08C91D095D82302C0EC91DE2B74
:1011D000DC939FBFDF91CF911F910895CF93DF9351
:1011E00090E0FC01E151FD4F2491FC01E755FD4FDA
:1011F0008491882361F190E0880F991FFC01EB58DE
:10120000FD4FC591D491FC01E157FD4FA591B491DB
:10121000611109C09FB7F894888120958223888343
:10122000EC912E230BC0623061F49FB7F894888153
:10123000322F309583238883EC912E2B2C939FBFE4
:1012400006C08FB7F894E8812E2B28838FBFDF91DB
:10125000CF910895863308F0865390917B00282F14
:101260002870977F922B90937B0087708064809387
:101270007C0080917A00806480937A0080917A006B
:1012800086FDFCCF809178002091790090E0922B30
:1012900008958F929F92AF92BF92CF92DF92EF927A
:1012A000FF926B017C0143DD4B015C01C114D10451
:1012B000E104F104E9F03BDDDC01CB018819990977
:1012C000AA09BB09883E9340A105B10578F321E046
:1012D000C21AD108E108F10888EE880E83E0981E52
:1012E000A11CB11CC114D104E104F10421F7DECF2B
:1012F000FF90EF90DF90CF90BF90AF909F908F9036
:1013000008952FB7F8946091200570912105809180
:101310002205909123052FBF08950F931F93CF931C
:10132000DF93EC01EEDF688779878A879B87CE01A0
:1013300091D897FF16C0E5DF088519852A853B857A
:10134000DC01CB01801B910BA20BB30B0C811D8127
:101350002E813F8180179107A207B30740F38FEFDB
:101360009FEFDF91CF911F910F9108951F920F92E0
:101370000FB60F9211242F933F938F939F93AF93A8
:10138000BF938091200590912105A0912205B091F5
:10139000230530911F0523E0230F2D3720F40196FC
:1013A000A11DB11D05C026E8230F0296A11DB11D88
:1013B00020931F058093200590932105A09322057B
:1013C000B09323058091240590912505A0912605D1
:1013D000B09127050196A11DB11D8093240590931E
:1013E0002505A0932605B0932705BF91AF919F9146
:1013F0008F913F912F910F900FBE0F901F901895D6
:10140000CF93DF93CDB7DEB766970FB6F894DEBF04
:101410000FBECDBF789484B5826084BD84B58160F1
:1014200084BD85B5826085BD85B5816085BD8091AF
:101430006E00816080936E00109281008091810027
:10144000826080938100809181008160809381001F
:10145000809180008160809380008091B1008460E1
:101460008093B1008091B00081608093B000809142
:1014700091008260809391008091910081608093BF
:101480009100809190008160809390008091A100F4
:1014900082608093A1008091A10081608093A1006F
:1014A0008091A00081608093A000809121018260E2
:1014B000809321018091210181608093210180919D
:1014C000200181608093200180917A008460809364
:1014D0007A0080917A00826080937A0080917A000D
:1014E000816080937A0080917A00806880937A008E
:1014F0001092C10040E855E260E070E08DE394E0B6
:101500003BDC40E855E260E070E080EA93E034DCE8
:1015100008E012E0D8018C910E5F1F4F61E05EDEA3
:10152000B2E006311B07B1F71092F8021092F702F1
:101530001092F6021092F5021092F40281E080936C
:10154000F3021092F20261E084E11ADE61E085E1CB
:1015500017DE8091B9008E7F8093B9008091B90029
:101560008D7F8093B90088E48093B80085E48093F0
:10157000BC008EE593E09093F1028093F0028FE53A
:1015800093E09093EF028093EE0261E088E026DE24
:1015900061E087E023DE61E089E020DE60E08BE04F
:1015A0001DDE61E082E01ADE61E083E017DE61E0CB
:1015B00084E014DE61E085E011DE60E086E00EDEAE
:1015C00085E490E09093E7048093E60480E090E067
:1015D000A0EAB0E48093E8049093E904A093EA04BD
:1015E000B093EB0480E090E0A0E8B4E48093EC04D6
:1015F0009093ED04A093EE04B093EF0460E085E4D3
:10160000EDDDA7E0EA2EA5E0FA2E00E010E08091E3
:10161000F4049091F504800F911F8DDAF701819306
:101620007F010F5F1F4F0430110589F70091F4040B
:101630001091F504C8017FDA8F3F49F0CE0103967F
:101640009E8B8D8B1E0198E0290E311C3DC0C80178
:10165000019671DA8F3F91F7C80102966CDA8F3FDD
:1016600069F7C801039667DA8F3F41F780E090E0A1
:10167000A0E8BFE38093070590930805A0930905B0
:10168000B0930A0587E0E82E85E0F82E00E010E030
:10169000D7016D917D018091F4049091F504800F44
:1016A000911F0E94A1130F5F1F4F0430110581F796
:1016B000C5CF8DE394E031DE97FF0DC0E1E0F0E0AF
:1016C000F0931603E09315038DE394E00E944C021F
:1016D000892B79F70AC0809317038DE394E01DDE10
:1016E00097FDECCF80931803E9CF8091150390917B
:1016F0001603019709F0FAC3809117038134A9F406
:1017000060911803062E000C770B880B990BFBD603
:1017100020EE3CE941E95DE30E942D140E949514FE
:1017200081E0C2DA8AE392E0CBDC80911703823455
:10173000A9F460911803062E000C770B880B990B07
:10174000E2D620EE3CE941E95DE30E942D140E94BF
:10175000951480E0A9DA8FE392E0B2DC8091170360
:101760008334A1F460911803062E000C770B880BCC
:10177000990BC9D620E030E040E851E423D70E941D
:10178000951481E0DAD984E492E09ADC8091170321
:101790008434A1F460911803062E000C770B880B9B
:1017A000990BB1D620E030E040E851E40BD70E941D
:1017B000951480E0C2D989E492E082DC809117031D
:1017C000853409F03EC060E089E0DADC61E088E061
:1017D000D7DC6091FB027091FC0281E065DAE4EBFA
:1017E000CE2EE2E0DE2EFBE7EF2EFCE0FF2E0BE23A
:1017F0001CE0E0E4F3E08491EAEFF2E0A490F6016B
:10180000B490BB2009F475C3811164DCEB2DF0E0CA
:10181000EE0FFF1FE55AFD4FA591B4918C91A822C0
:1018200009F467C361E089E0ABDC1092FC0210921E
:10183000FB026CE271E080E090E02BDD8AED92E04B
:101840003FDC809117038634F1F46091F9027091C6
:10185000FA0280E072D960E082E092DC60E083E02E
:101860008FDC60E084E08CDC60E085E089DC109255
:10187000FA021092F9026CE271E080E090E009DD7A
:101880008EE492E01DDC809117038335B9F460E0AB
:1018900082E076DC60E083E073DC60E084E070DCB2
:1018A00060E085E06DDC61E089E06ADC6CE271E0BB
:1018B00080E090E0EEDC83E592E002DC80911703AB
:1018C000873459F460E082E15BDC68EE73E080E02D
:1018D00090E0DFDC88E592E0F3DB80911703883449
:1018E00059F461E082E14CDC68EE73E080E090E066
:1018F000D0DC83E692E0E4DB80911703893409F0C1
:101900007AC0CE0101966C017E0195E1E90EF11CD1
:10191000860184E49FDCD8018D939D938D0165E061
:1019200070E080E090E0B5DC0E151F0591F780E0D7
:1019300090E00196F6019C01D6014D915C911197C2
:10194000628173816417750724F46D937C935383CC
:1019500042832F5F3F4F32962A30310569F7B2E05C
:10196000CB0ED11C8930910521F7FE0135969E01E1
:101970002F5E3F4F60E070E0CB01419151916A01D1
:10198000550FEE08FF086C0D7D1D8E1D9F1D2E1737
:101990003F0799F7B6D520E030E040EA50E412D690
:1019A00020E030E040E85AE30DD620E030E040ECA3
:1019B00050E453D720E030E040E650E403D6609393
:1019C000110370931203809313039093140368EE32
:1019D00073E080E090E05DDC8FE692E030DA6091C9
:1019E00011037091120380911303909114039FDAF5
:1019F00084E792E065DB809117038A3409F040C1E7
:101A000080E090E0A8ECB1E48093F0049093F104BE
:101A1000A093F204B093F3048091E6041BDCBC01B4
:101A2000990F880B990B6FD560930B0570930C057C
:101A300080930D0590930E052091EC043091ED04F8
:101A40004091EE045091EF0408D72091E8043091C2
:101A5000E9044091EA045091EB04B4D56B017C0198
:101A600060930F05709310058093110590931205F4
:101A700025E83BE645E053E4A5D5A7019601A2D5AC
:101A8000A70196019FD54B015C0129E23CED4FE790
:101A900053E4C701B60196D5A701960193D59B01E2
:101AA000AC01C501B40174D64B015C0126EF38E5E9
:101AB00046E554E4C701B60185D59B01AC01C501DB
:101AC000B40167D6209107053091080540910905BA
:101AD00050910A0577D56B017C01609313057093D3
:101AE0001405809315059093160520E030E048EC2E
:101AF00051E46091F0047091F1048091F2049091AE
:101B0000F30446D62AE037ED43EA5CE35BD520E0F8
:101B100030E040E85FE33DD69B01AC01C701B60170
:101B20009CD66093170570931805809319059093C0
:101B30001A0520E030E040E05FE344D560931B05E8
:101B400070931C0580931D0590931E0580910303DF
:101B500081110CC0D6DB6093FF0270930003809369
:101B600001039093020381E08093030310E18DE36E
:101B700094E00E944C02181619060CF05DC0C1DBFF
:101B8000C090FF02D0900003E0900103F0900203A8
:101B9000DC01CB018C199D09AE09BF09853F91403D
:101BA000A105B10540F010920605A6EFB4E0E12FC3
:101BB0001D92EA95E9F7A5DB6093FF02709300039D
:101BC00080930103909302038DE394E00E942A0224
:101BD0008A3021F0909106059F3071F4109206052D
:101BE00086EF94E080D469E772E086EF94E004D752
:101BF000892B09F08BC109C0E92FF0E0EA51FB4FB6
:101C0000808B9F5F90930605B2CF6FE772E086EFFF
:101C100094E0F2D6892B09F08BC164E872E086EF7C
:101C200094E0EAD6009709F0B5C18091FE028823BE
:101C300019F08DE492E031D980911B0590911C053B
:101C4000A0911D05B0911E0580930D0390930E0386
:101C5000A0930F03B093100368EE73E080E090E070
:101C600018DB89E892E0EBD860910D0370910E03C8
:101C700080910F03909110035AD98EE892E020DAF8
:101C8000809117038B3409F079C01A82198285E09C
:101C9000AD89BE891D928A95E9F748E050E060E081
:101CA00072E080EA93E00E94F1018BE19EE40197EB
:101CB000F1F780EA93E00E944C020797D4F380EAA0
:101CC00093E00E944C02892B79F08E010F5F1F4F29
:101CD00080EA93E022DB97FDF2CFF80181938F0138
:101CE0002E163F06A9F7EBCF2C814D81822F90E075
:101CF000807F99272F70820F911D24E0880F991FF4
:101D00002A95E1F7242F30E054E0369527955A952F
:101D1000E1F7820F931F64E0880F991F6A95E1F73E
:101D20004F70840F911D90930C0380930B0368EE0A
:101D300073E080E090E0ADDA83E992E080D8C09073
:101D40000B03D0900C030D2C000CEE08FF08F7FEDF
:101D50000EC06DE28DE394E00E948C026627772727
:101D6000CB016C197D098E099F094AE003C04AE046
:101D7000C701B6019CD889E992E0A2D980911703E6
:101D80008C3459F461E083E1FBD96CED75E080E0BF
:101D900090E07FDA8EE992E093D9809117038D3439
:101DA00059F460E083E1ECD96CED75E080E090E0FF
:101DB00070DA83EA92E084D9809117038E3459F463
:101DC00061E088E1DDD96CED75E080E090E061DAFA
:101DD00088EA92E075D9809117038F3459F460E056
:101DE00088E1CED96CED75E080E090E052DA8DEAC2
:101DF00092E066D980911703803559F461E089E15A
:101E0000BFD96CED75E080E090E043DA82EB92E0C0
:101E100057D980911703813559F460E089E1B0D931
:101E20006CED75E080E090E034DA87EB92E048D921
:101E300080911703823559F461E086E1A1D96CEDF8
:101E400075E080E090E025DA8CEB92E039D9809162
:101E50001703843559F460E086E192D96CED75E0A2
:101E600080E090E016DA81EC92E02AD980911703A5
:101E7000853559F461E087E183D96CED75E080E048
:101E800090E007DA86EC92E01BD980911703863543
:101E900059F460E087E174D96CED75E080E090E082
:101EA000F8D98BEC92E00CD980911703873559F45F
:101EB00061E08AE165D96CED75E080E090E0E9D9F8
:101EC00080ED92E0FDD880911703883559F460E0E9
:101ED0008AE156D96CED75E080E090E0DAD985EDC5
:101EE00092E0EED810921603109215030E94F902A8
:101EF000EBCB61E087E044D9C7010197F1F760E0DF
:101F000087E03ED9C8010197F1F773CC81E0809357
:101F1000FE021092FD020E94300780E392E00E94D0
:101F20004D0783EF91E00E944D070E94300784CE59
:101F30008091FE02882309F47FCE0E9430078091B1
:101F4000FD028823C1F007E015E0E12CF12CD80157
:101F50006D918D018091F4049091F5048E0D9F1D7B
:101F6000F0D3BFEFEB1AFB0AE4E0EE16F10479F7C9
:101F700083E791E002C08DE591E00E94330783E49E
:101F800091E00E944D070E9430071092FD021092CE
:101F9000FE0252CE60E070E0049632D12091FE0243
:101FA000222309F449CE9B01AC01F3D36B017C01E0
:101FB00020E030E048EC51E46091F0047091F104CD
:101FC0008091F2049091F304E3D32AE037ED43EAE1
:101FD0005CE3F8D220E030E040E85FE3DAD3A70129
:101FE0009601F0D24B015C01C0900F05D090100516
:101FF000E0901105F090120525E83BE645E053E43A
:10200000C701B601DFD2A7019601DCD2A701960174
:10201000D9D22B013C0129E23CED4FE753E4C70143
:10202000B601D0D2A7019601CDD29B01AC01C3016C
:10203000B201AED32B013C0126EF38E546E554E46E
:10204000C701B601BFD29B01AC01C301B201A1D34C
:102050009B01AC01C501B40100D46B017C0120E0FF
:1020600030E0A901C501B40191D41816ACF520E007
:1020700030E04AEF54E4C501B4013FD287FF2CC0E1
:1020800020E030E040E85EE3C701B6017FD41816D7
:102090001CF520E030E040E850E4C701B6012DD245
:1020A00087FF1AC00E9430078AED91E00E94330733
:1020B000C701B6010E9497078AEB91E00E944D0785
:1020C000C0920705D0920805E0920905F0920A0532
:1020D00081E08093FD02B0CD0E9430078BE991E052
:1020E0000E944D070E9430071092FD02A5CDE0EA44
:1020F000F3E01382128288EE93E0A0E0B0E08483E4
:102100009583A683B7832AE132E03183208345EDAE
:1021100050E05587448744ED50E05787468740EDAF
:1021200050E0518B408B41ED50E0538B428B42EDA0
:1021300050E0558B448B46ED50E0578B468B118E0B
:10214000128E138E148EEDE3F4E0138212828483D8
:102150009583A683B7833183208325EC30E03587D0
:10216000248724EC30E03787268720EC30E0318B61
:10217000208B21EC30E0338B228B22EC30E0358B4E
:10218000248B26EC30E0378B268B118E128E138E2B
:10219000148EEAEDF4E01382128284839583A68381
:1021A000B7838CE292E091838083E6EEF4E087E3EC
:1021B00090E09183808380E090E0A8ECB1E4828796
:1021C0009387A487B58780E090E0A0EAB0E482839B
:1021D0009383A483B58380E090E0A0E8B4E4868391
:1021E0009783A087B18788E090E09787868780E013
:1021F00090E0A0E8BFE381A392A3A3A3B4A30895B2
:102200008F929F92AF92BF92CF92DF92EF92FF9206
:102210000F931F93CF93DF93EC016B016115710551
:1022200019F0FB01918380837E01FFEFEF1AFF0A13
:102230000881802F90E037D1892B11F0E701F4CF8E
:102240000D3239F47E0182E0E80EF11C098111E0C3
:1022500008C00B3229F47E0192E0E90EF11C0981DD
:1022600010E0E701219743E050E060E171E0CE012A
:1022700022D1892BB9F4239645E050E06BE071E060
:10228000CE0119D1892B09F42596C114D10419F076
:10229000F601D183C0831111F0C060E070E080E8E6
:1022A0009FE7F4C043E050E068E071E0CE0103D165
:1022B000892B59F4C114D10409F4E4C0F2E0EF0E03
:1022C000F11CF601F182E082DDC020E030E0A901DE
:1022D000C0E0D0E0F70160EDA62EA00E89E08A15DF
:1022E00028F1912F9260B92E812F887012FF04C0BF
:1022F000811123C0219621C081112197A5E0B0E072
:102300002ED2DC01CB01880F991FAA1FBB1F9C0195
:10231000AD012A0D311D411D511D283989E93807AC
:10232000480789E1580748F0166006C09EEFA912D9
:102330000AC013FD40C01860B12E8FEFE81AF80AEA
:1023400000811B2DC7CF802F8F7D8534A1F5808123
:102350008D3211F4106106C08B3221F0319661E0AC
:1023600070E004C08181329662E070E080538A3070
:1023700018F0E61BF70B1FC060E070E060389CE0CF
:1023800079075CF4DB01AA0FBB1FAA0FBB1F6A0F02
:102390007B1F660F771F680F711D3196DF01119744
:1023A0008C9180538A3050F314FF03C0719561956E
:1023B0007109C60FD71F11FF08C0C114D10429F03D
:1023C000CF010197F60191838083CA01B90199D0A9
:1023D000212F2370233019F04B015C0106C04B0103
:1023E0005C01B7FAB094B7F8B09420E030E0A901EE
:1023F000C501B40182D0882309F43CC0D7FF06C0D0
:10240000D195C195D10907E211E002C00FE311E0B7
:102410006801F8E1CF1AD10890E2E92EF12CCE152F
:10242000DF056CF0F8012591359145915491C50176
:10243000B401C8D04B015C01CE19DF09F0CF0450C4
:102440001109F594E7940C151D0549F78A2D880F9D
:102450008B2D881F8F3F41F020E030E0A901C5019E
:10246000B4014BD0811106C082E290E0909329051F
:1024700080932805C501B40109C060E070E080E8E0
:102480009FEF04C060E070E080EC9FE7DF91CF91A8
:102490001F910F91FF90EF90DF90CF90BF90AF9082
:1024A0009F908F9008959111F0C0803219F089505B
:1024B0008550D0F70895FB01DC014150504088F071
:1024C0008D9181341CF08B350CF4805E6591613404
:1024D0001CF06B350CF4605E861B611171F3990B77
:1024E0000895881BFCCFDC016C9161566A3108F0BD
:1024F000605E6F5B6D93C1F7089540D008F481E092
:102500000895E89409C097FB3EF4909580957095E6
:1025100061957F4F8F4F9F4F9923A9F0F92F96E92F
:10252000BB279395F695879577956795B795F111A4
:10253000F8CFFAF4BB0F11F460FF1BC06F5F7F4F41
:102540008F4F9F4F16C0882311F096E911C0772353
:1025500021F09EE8872F762F05C0662371F096E85C
:10256000862F70E060E02AF09A95660F771F881F2B
:10257000DAF7880F9695879597F90895990F0008CF
:10258000550FAA0BE0E8FEEF16161706E807F90745
:10259000C0F012161306E407F50798F0621B730BE0
:1025A000840B950B39F40A2661F0232B242B252B61
:1025B00021F408950A2609F4A140A6958FEF811D04
:1025C000811D08950BD07BC06CD028F071D018F01D
:1025D000952309F05DC062C01124A5C081D0A0F38D
:1025E000959FD1F3950F50E0551F629FF001729FA8
:1025F000BB27F00DB11D639FAA27F00DB11DAA1FC7
:10260000649F6627B00DA11D661F829F2227B00D13
:10261000A11D621F739FB00DA11D621F839FA00D9E
:10262000611D221F749F3327A00D611D231F849FEE
:10263000600D211D822F762F6A2F11249F57504045
:102640008AF0E1F088234AF0EE0FFF1FBB1F661FE0
:10265000771F881F91505040A9F79E3F510570F099
:1026600017C061C05F3FECF3983EDCF38695779529
:102670006795B795F795E7959F5FC1F7FE2B880F94
:10268000911D9695879597F908959927882708951C
:1026900097F99F6780E870E060E008959FEF80EC15
:1026A000089500240A9416161706180609060895B8
:1026B00000240A9412161306140605060895092E1E
:1026C0000394000C11F4882352F0BB0F40F4BF2B8D
:1026D00011F460FF04C06F5F7F4F8F4F9F4F0895CD
:1026E00057FD9058440F551F59F05F3F71F04795C3
:1026F000880F97FB991F61F09F3F79F087950895A8
:10270000121613061406551FF2CF4695F1DF08C0C6
:10271000161617061806991FF1CF869571056105E3
:1027200008940895E894BB2766277727CB0197F98B
:102730000895F999FECF92BD81BDF89A992780B589
:102740000895262FF999FECF1FBA92BD81BD20BDF5
:102750000FB6F894FA9AF99A0FBE0196089509D027
:10276000A59F900DB49F900DA49F800D911D1124E5
:102770000895A29FB001B39FC001A39F700D811D5A
:102780001124911DB29F700D811D1124911D08957A
:102790005058BB27AA270ED092CF83DF30F088DFB6
:1027A00020F031F49F3F11F41EF478CF0EF4E09541
:1027B000E7FB6ECFE92F94DF80F3BA176207730748
:1027C0008407950718F071F49EF5ACCF0EF4E095F0
:1027D0000B2EBA2FA02D0B01B90190010C01CA01DB
:1027E000A0011124FF27591B99F0593F50F4503E86
:1027F00068F11A16F040A22F232F342F4427585F78
:10280000F3CF469537952795A795F0405395C9F78F
:102810007EF41F16BA0B620B730B840BBAF0915047
:10282000A1F0FF0FBB1F661F771F881FC2F70EC0E6
:10283000BA0F621F731F841F48F4879577956795B9
:10284000B795F7959E3F08F0B3CF9395880F08F0A2
:102850009927EE0F9795879508950CD030CF28DFF4
:1028600040F01FDF30F021F45F3F19F011CF51111C
:102870005ACF14CF35DF98F39923C9F35523B1F319
:10288000951B550BBB27AA2762177307840738F0DF
:102890009F5F5F4F220F331F441FAA1FA9F333D03E
:1028A0000E2E3AF0E0E830D091505040E695001CF2
:1028B000CAF729D0FE2F27D0660F771F881FBB1FAE
:1028C000261737074807AB07B0E809F0BB0B802D88
:1028D000BF01FF2793585F4F2AF09E3F510568F0D4
:1028E000D7CE21CF5F3FECF3983EDCF3869577950A
:1028F0006795B795F7959F5FC9F7880F911D9695D6
:10290000879597F90895E1E0660F771F881FBB1F31
:10291000621773078407BA0720F0621B730B840BDE
:10292000BA0BEE1F88F7E095089504D06894B111B2
:10293000FACE0895DDDE88F09F5790F0B92F9927E1
:10294000B751A0F0D1F0660F771F881F991F1AF0BA
:10295000BA95C9F712C0B13081F0E4DEB1E0089554
:10296000E1CE672F782F8827B85F39F0B93FCCF3D5
:10297000869577956795B395D9F73EF490958095B0
:10298000709561957F4F8F4F9F4F0895F7DD08F445
:102990008FEF0895F3DD880B990B0895A1E21A2EAD
:1029A000AA1BBB1BFD010DC0AA1FBB1FEE1FFF1FF3
:1029B000A217B307E407F50720F0A21BB30BE40B43
:1029C000F50B661F771F881F991F1A9469F760958A
:1029D0007095809590959B01AC01BD01CF01089544
:1029E000EE0FFF1F881F8BBF0790F691E02D199403
:1029F00081E090E0F8941AC0FB0151915523A9F0B1
:102A0000BF01DC014D9145174111E1F759F4CD01AA
:102A10000190002049F04D9140154111C9F3FB018F
:102A20004111EFCF81E090E001970895F894FFCF36
:102A3000FE0400030001D5C51200130018001900A0
:102A4000160017001A00000000008C02F1011B02A2
:102A5000D8024C022A023E020000000096038C03BA
:102A6000A70360038403700361034F4B2D41004FA4
:102A70004B2D42004F4B2D43004F4B2D44004F4BED
:102A80002D46004F4B2D53004F4B2D47434F3220C7
:102A90004F4E004F4B2D48434F32204F46460020AB
:102AA00050483A004F4B2D4900454E544552004581
:102AB0005849540043414C3A002045433A004F4B9B
:102AC0002D4A0020434F323A004F4B2D4B004F4BC5
:102AD0002D4C004F4B2D4D004F4B2D4E004F4B2D8D
:102AE0004F004F4B2D50004F4B2D51004F4B2D524F
:102AF000004F4B2D54004F4B2D55004F4B2D560082
:102B00004F4B2D57004F4B2D58004F4B2D45000D6F
:0E2B10000A006E616E00696E66006F766600E8
:00000001FF
