:100000000C9470000C9498000C9498000C94980038
:100010000C9498000C9498000C9498000C94980000
:100020000C9498000C9498000C9498000C949800F0
:100030000C9498000C9498000C9498000C949800E0
:100040000C94BA030C9498000C942A040C940404A5
:100050000C9498000C9498000C9498000C949800C0
:100060000C9498000C9498005E0570058505980521
:10007000AA05B005CE05CE05CE05CE05CE05CE052A
:10008000CE05CE05CE05CE05CE05CE05B8050000C1
:100090000000240027002A0000000000250028009E
:1000A0002B000404040404040404020202020202F9
:1000B000030303030303010204081020408001022C
:1000C00004081020010204081020000000080002AB
:1000D0000100000304070000000000000000DC0530
:1000E00011241FBECFEFD8E0DEBFCDBF21E0A8E1D5
:1000F000B1E001C01D92A63CB207E1F711E0A0E01B
:10010000B1E0E2E7FFE002C005900D92A831B1072F
:10011000D9F710E0C0E7D0E004C02197FE010E94AB
:10012000AC07CF36D107C9F70E945C040C94B7071F
:100130000C94000090E0FC01E653FF4F2491FC0179
:10014000EA54FF4F3491FC01EE55FF4FE491EE234A
:1001500009F43CC0222339F1233091F038F42130E6
:10016000A9F0223001F584B58F7D12C0273091F0BF
:100170002830A1F02430B9F4809180008F7D03C035
:10018000809180008F77809380000DC084B58F7739
:1001900084BD09C08091B0008F7703C08091B0000A
:1001A0008F7D8093B000F0E0EE0FFF1FE856FF4F09
:1001B000A591B4919FB7F894611104C08C913095CA
:1001C000382302C0EC913E2B3C939FBF0895CF9300
:1001D000DF9390E0FC01EA54FF4F2491FC01EE55BF
:1001E000FF4F8491882361F190E0880F991FFC01F3
:1001F000E257FF4FC591D491FC01E856FF4FA591FE
:10020000B491611109C09FB7F89488812095822329
:100210008883EC912E230BC0623061F49FB7F89471
:100220008881322F309583238883EC912E2B2C9359
:100230009FBF06C08FB7F894E8812E2B28838FBF0D
:10024000DF91CF9108953FB7F89480912501909167
:100250002601A0912701B091280126B5A89B05C0D1
:100260002F3F19F00196A11DB11D3FBFBA2FA92F35
:10027000982F8827820F911DA11DB11DBC01CD01B2
:1002800042E0660F771F881F991F4A95D1F708959E
:10029000CF92DF92EF92FF920F931F93CF93DF9352
:1002A0006C017A018B01C0E0D0E0CE15DF0581F052
:1002B000D8016D918D01D601ED91FC910190F081F5
:1002C000E02DC6010995892B11F02196EECF7E0114
:1002D000C701DF91CF911F910F91FF90EF90DF90B9
:1002E000CF900895089580E090E00895FC01538D2B
:1002F000448D252F30E0842F90E0821B930B541700
:1003000010F0CF96089501970895FC01918D828D8C
:10031000981761F0828DDF01A80FB11D5D968C9159
:10032000928D9F5F9F73928F90E008958FEF9FEF64
:100330000895FC01918D828D981731F0828DE80F20
:10034000F11D858D90E008958FEF9FEF0895FC01DA
:10035000918D228D892F90E0805C9F4F821B9109A7
:100360008F739927089589E291E00E94A70121E007
:10037000892B09F420E0822F0895FC01848DDF0190
:10038000A80FB11DA35ABF4F2C91848D90E0019608
:100390008F739927848FA689B7892C93A089B189F7
:1003A0008C91837080648C93938D848D981306C098
:1003B0000288F389E02D80818F7D80830895EF92FC
:1003C000FF920F931F93CF93DF93EC0181E0888F0F
:1003D0009B8D8C8D981305C0E889F989808185FDF6
:1003E00026C0F62E0B8D10E00F5F1F4F0F731127E5
:1003F000E02E8C8DE8120CC00FB607FCFACFE8890E
:10040000F989808185FFF5CFCE010E94BD01F1CF32
:100410008B8DFE01E80FF11DE35AFF4FF0829FB76D
:10042000F8940B8FEA89FB89808180620AC09FB7AC
:10043000F894EE89FF896083E889F9898081837067
:10044000806480839FBF81E090E0DF91CF911F9116
:100450000F91FF90EF900895CF93DF93EC01888D7B
:100460008823C9F0EA89FB89808185FD05C0A889B8
:10047000B9898C9186FD0FC00FB607FCF5CF80813E
:1004800085FFF2CFA889B9898C9185FFEDCFCE0188
:100490000E94BD01E7CFDF91CF91089580E090E009
:1004A000892B29F00E94B30181110C94000008955A
:1004B000EF92FF920F931F93CF93DF93EB01E12C09
:1004C000F12C0BE11CE1811154C0EC16FD060CF07F
:1004D000A4C061E082E00E949A0060E084E00E9493
:1004E0009A0060E08CE00E949A0061E08DE00E943A
:1004F0009A00C8010197F1F761E082E00E949A003A
:1005000060E084E00E949A0061E08CE00E949A0022
:1005100060E08DE00E949A00C8010197F1F760E069
:1005200082E00E949A0061E084E00E949A0061E00B
:100530008CE00E949A0060E08DE00E949A00C80161
:100540000197F1F760E082E00E949A0061E084E0A8
:100550000E949A0060E08CE00E949A0061E08DE0C9
:100560000E949A00C8010197F1F78FEFE81AF80A84
:10057000ACCFEC16FD060CF05BC060E082E00E94A0
:100580009A0061E084E00E949A0060E08CE00E94A2
:100590009A0061E08DE00E949A00C8010197F1F78E
:1005A00060E082E00E949A0061E084E00E949A008C
:1005B00061E08CE00E949A0060E08DE00E949A0069
:1005C000C8010197F1F761E082E00E949A0060E0C3
:1005D00084E00E949A0061E08CE00E949A0060E052
:1005E0008DE00E949A00C8010197F1F761E082E076
:1005F0000E949A0060E084E00E949A0060E08CE033
:100600000E949A0061E08DE00E949A00C801019763
:10061000F1F78FEFE81AF80AACCF809118019091AA
:1006200019018C1B9D0B90931901809318010AC02E
:100630008091180190911901C80FD91FD093190109
:10064000C0931801DF91CF911F910F91FF90EF9010
:1006500008957F928F929F92AF92BF92CF92DF9236
:10066000EF92FF920F931F93CF93DF93782EEB01BE
:1006700060E089E00E949A00672D88E00E949A005D
:100680000E9423014B015C019AE0C92ED12CE12C80
:10069000F12C0E942301DC01CB0188199909AA09D8
:1006A000BB09883E9340A105B10598F321E0C21A29
:1006B000D108E108F10888EE880E83E0981EA11C9D
:1006C000B11CC114D104E104F10419F700E010E0F9
:1006D0008BE7E82E8CE0F82E61E00C171D0784F400
:1006E00087E00E949A00C7010197F1F760E087E078
:1006F0000E949A00C7010197F1F70F5F1F4FECCFDF
:1007000089E00E949A0060911A0170911B0171109A
:1007100003C06C0F7D1F02C06C1B7D0B70931B010F
:1007200060931A01DF91CF911F910F91FF90EF908D
:10073000DF90CF90BF90AF909F908F907F90089563
:10074000CF93DF9342E050E062E171E089E291E013
:100750000E944801EC0142E050E065E171E089E26D
:1007600091E00E9448018C0F9D1FDF91CF91089569
:100770000E94B2071F920F920FB60F9211242F936F
:100780003F938F939F93AF93BF938091210190915B
:100790002201A0912301B09124013091200123E096
:1007A000230F2D3720F40196A11DB11D05C026E8A9
:1007B000230F0296A11DB11D2093200180932101DA
:1007C00090932201A0932301B093240180912501ED
:1007D00090912601A0912701B09128010196A11DB9
:1007E000B11D8093250190932601A0932701B0931A
:1007F0002801BF91AF919F918F913F912F910F90C1
:100800000FBE0F901F9018951F920F920FB60F9268
:1008100011242F933F934F935F936F937F938F9305
:100820009F93AF93BF93EF93FF9389E291E00E9470
:10083000BD01FF91EF91BF91AF919F918F917F91FA
:100840006F915F914F913F912F910F900FBE0F903D
:100850001F9018951F920F920FB60F9211242F938D
:100860008F939F93EF93FF93E0913901F0913A01B9
:100870008081E0913F01F091400182FD12C09081A2
:10088000809142018F5F8F7320914301821751F055
:10089000E0914201F0E0E75DFE4F958F80934201C9
:1008A00001C08081FF91EF919F918F912F910F90C7
:1008B0000FBE0F901F901895789484B5826084BD08
:1008C00084B5816084BD85B5826085BD85B5816054
:1008D00085BD80916E00816080936E0010928100D2
:1008E000809181008260809381008091810081608D
:1008F000809381008091800081608093800080914E
:10090000B10084608093B1008091B00081608093D9
:10091000B00080917A00846080937A0080917A00A0
:10092000826080937A0080917A00816080937A005F
:1009300080917A00806880937A001092C100E091E3
:100940003901F0913A0182E08083E0913501F09124
:1009500036011082E0913701F09138018FEC8083ED
:1009600010924101E0913D01F0913E0186E08083CB
:10097000E0913B01F0913C01808180618083E091B6
:100980003B01F0913C01808188608083E0913B01D4
:10099000F0913C01808180688083E0913B01F0917F
:1009A0003C0180818F7D808361E088E00E94E700C8
:1009B00061E087E00E94E70061E089E00E94E700D3
:1009C00060E08BE00E94E70061E082E00E94E700C7
:1009D00061E084E00E94E70061E08CE00E94E700B3
:1009E00061E08DE00E94E70060E08AE00E94E7009D
:1009F00001E010E089E291E00E94A701892B09F44F
:100A000044C0CEE1D1E02FB7F894809121019091BC
:100A10002201A0912301B09124012FBF80933101C5
:100A200090933201A0933301B093340189E291E0B5
:100A30000E94850197FFB9C02FB7F89480912101DA
:100A400090912201A0912301B09124012FBF4091E8
:100A50003101509132016091330170913401841B56
:100A6000950BA60BB70B40912D0150912E01609173
:100A70002F017091300184179507A607B707B0F2D0
:100A800010931D0100931C01B5CF80911C01909122
:100A90001D01019709F086C0E0911E018E2FEE0F17
:100AA000990BAA0BBB0BFC01E154F109E331F105F1
:100AB00008F074C0EC5CFF4F0C94AC0760911F0110
:100AC000062E000C770B880B990B0E940B0620EE6C
:100AD0003CE941E95DE30E9404070E9476073EC0BD
:100AE00060911F01062E000C770B880B990B0E945A
:100AF0000B0620EE3CE941E95DE30E9404070E94F9
:100B0000760780E00E94290347C060911F01062EEE
:100B1000000C770B880B990B0E940B0620E030E04D
:100B200040E851E40E9446060E94760781E01DC01D
:100B300060911F01062E000C770B880B990B0E9409
:100B40000B0620E030E040E851E40E9446060E9497
:100B500076070AC060911A0170911B0181E0D2CF23
:100B6000609118017091190180E00E94580214C030
:100B700060E082E00E949A0060E084E00E949A00B7
:100B800060E08CE00E949A0060E08DE00E949A0094
:100B900061E089E00E949A000E94A00310921D016A
:100BA00010921C010E944E0225CF899381E0C03231
:100BB000D80709F028CF64CFE9E2F1E0138212826E
:100BC00088EE93E0A0E0B0E084839583A683B783AA
:100BD00084E091E09183808385EC90E09587848721
:100BE00084EC90E09787868780EC90E0918B808BF7
:100BF00081EC90E0938B828B82EC90E0958B848BE0
:100C000086EC90E0978B868B118E128E138E148E4D
:100C10000895E89409C097FB3EF4909580957095EF
:100C200061957F4F8F4F9F4F9923A9F0F92F96E938
:100C3000BB279395F695879577956795B795F111AD
:100C4000F8CFFAF4BB0F11F460FF1BC06F5F7F4F4A
:100C50008F4F9F4F16C0882311F096E911C077235C
:100C600021F09EE8872F762F05C0662371F096E865
:100C7000862F70E060E02AF09A95660F771F881F34
:100C8000DAF7880F9695879597F908950E94590687
:100C90000C94CA060E94BC0638F00E94C30620F0DD
:100CA000952311F00C94B3060C94B90611240C94FE
:100CB000FE060E94DB0670F3959FC1F3950F50E08E
:100CC000551F629FF001729FBB27F00DB11D639FFE
:100CD000AA27F00DB11DAA1F649F6627B00DA11DA4
:100CE000661F829F2227B00DA11D621F739FB00D4A
:100CF000A11D621F839FA00D611D221F749F3327BA
:100D0000A00D611D231F849F600D211D822F762F52
:100D10006A2F11249F5750409AF0F1F088234AF02F
:100D2000EE0FFF1FBB1F661F771F881F915050409B
:100D3000A9F79E3F510580F00C94B3060C94FE0673
:100D40005F3FE4F3983ED4F3869577956795B79522
:100D5000F795E7959F5FC1F7FE2B880F911D96953C
:100D6000879597F9089597F99F6780E870E060E0AC
:100D700008959FEF80EC089500240A941616170634
:100D800018060906089500240A941216130614067C
:100D900005060895092E0394000C11F4882352F0DF
:100DA000BB0F40F4BF2B11F460FF04C06F5F7F4F97
:100DB0008F4F9F4F089557FD9058440F551F59F07E
:100DC0005F3F71F04795880F97FB991F61F09F3F38
:100DD00079F087950895121613061406551FF2CF61
:100DE0004695F1DF08C0161617061806991FF1CFB1
:100DF00086957105610508940895E894BB276627D8
:100E00007727CB0197F908950E9418070C94CA061A
:100E10000E94C30658F00E94BC0640F029F45F3FD0
:100E200029F00C94B30651110C94FE060C94B906EB
:100E30000E94DB0668F39923B1F3552391F3951BC8
:100E4000550BBB27AA2762177307840738F09F5FEB
:100E50005F4F220F331F441FAA1FA9F335D00E2E58
:100E60003AF0E0E832D091505040E695001CCAF7C5
:100E70002BD0FE2F29D0660F771F881FBB1F261788
:100E800037074807AB07B0E809F0BB0B802DBF015F
:100E9000FF2793585F4F3AF09E3F510578F00C942E
:100EA000B3060C94FE065F3FE4F3983ED4F38695B8
:100EB00077956795B795F7959F5FC9F7880F911D4F
:100EC0009695879597F90895E1E0660F771F881F3B
:100ED000BB1F621773078407BA0720F0621B730BEE
:100EE000840BBA0BEE1F88F7E09508950E947D07EA
:100EF0006894B1110C94FE0608950E94E30688F0F0
:100F00009F5798F0B92F9927B751B0F0E1F0660FCD
:100F1000771F881F991F1AF0BA95C9F714C0B1300E
:100F200091F00E94FD06B1E008950C94FD06672F34
:100F3000782F8827B85F39F0B93FCCF3869577953D
:100F40006795B395D9F73EF4909580957095619526
:100F50007F4F8F4F9F4F0895EE0FFF1F0590F49125
:100F6000E02D099481E090E0F8940C94B707F89490
:020F7000FFCFB1
:100F720000000000DF01480176012C02A701850173
:080F820099014F4B000D0A001C
:00000001FF
