:10000000BEC10000ECC10000EAC10000E8C1000070
:10001000E6C10000E4C10000E2C10000E0C1000050
:10002000DEC10000DCC10000DAC10000D8C1000060
:10003000D6C10000D4C10000D2C10000D0C1000070
:10004000CEC10000CCC10000CAC10000C8C1000080
:10005000C6C10000C4C10000C2C10000E0C700006A
:10006000BEC1000087C400005CC40000B8C100002D
:10007000B6C10000B4C10000B2C10000B0C10000B0
:10008000AEC10000ACC10000AAC10000A8C10000C0
:10009000A6C10000A4C10000A2C10000A0C10000D0
:1000A0009EC100009CC100009AC1000098C10000E0
:1000B00096C1000094C1000092C1000090C10000F0
:1000C0008EC100008CC100008AC10000F4C3000092
:1000D000C9C3000084C1000082C1000080C10000CB
:1000E0007EC10000DE06E106D006D406DA06180757
:1000F000E506E906EF06F306F706FD060107050724
:1001000018070B070F0713074E414E494E49545924
:10011000494E46CDCCCC3D0AD7233C17B7D13877D2
:10012000CC2B329595E6241FB14F0A0000204100E8
:1001300000C84200401C4620BCBE4CCA1B0E5AAE32
:10014000C59D742C457869742043616C6962726145
:1001500074696F6E204D6F64653C3C3C003E3E3ED2
:1001600043616C6962726174696F6E204661696C8B
:100170006564003E3E3E43616C6962726174696F02
:100180006E205375636365737366756C2C4B2056D4
:10019000616C7565205361766564003E3E3E436F39
:1001A0006E6669726D204661696C65642C54727963
:1001B00020416761696E3C3C3C002C2053656E64B5
:1001C000204558495420746F205361766520616E34
:1001D0006420457869743C3C3C003E3E3E436F6E73
:1001E0006672696D205375636365737366756C2CF5
:1001F0004B3A003E3E3E506C6561736520707574ED
:10020000207468652070726F626520696E746F205B
:10021000746865207374616E6461726420627566CF
:1002200066657220736F6C7574696F6E3C3C3C0040
:100230003E3E3E456E7465722043616C6962726138
:1002400074696F6E204D6F64653C3C3C00436F6D7C
:100250006D616E64204572726F7200000020002391
:1002600000260029002C002F0032000001000003AE
:10027000010601090100002100240027002A002DA9
:10028000003000330001010000040107010A0100F1
:10029000002200250028002B002E0031003400022F
:1002A000010000050108010B01050505050705080A
:1002B000080808020202020A0A08080404040401E9
:1002C000010101010101010303030303030303040B
:1002D0000707070C0C0C0C0C0C0C0C02020202069B
:1002E000060606060606060B0B0B0B0B0B0B0B018B
:1002F0000210202008081020401020408002010237
:1003000001080402010102040810204080804020FE
:100310001008040201800402018040201008040239
:1003200001080402010102040810204080010204B7
:10033000081020408000000A0B02090C0D0E08076F
:1003400003040100000000000000000000000000A5
:10035000000000000000000000000000000000009D
:10036000001211100000000000000000000000005A
:10037000000000000000000000000000310E112409
:100380001FBECFEFD1E2DEBFCDBF00E00CBF24E047
:10039000ACEDB2E001C01D92AA37B207E1F712E05E
:1003A000A0E0B2E0ECE8F5E200E00BBF02C007908D
:1003B0000D92AC3DB107D9F711E0CFEBD1E000E0F1
:1003C00006C021970109802FFE010E949E12CE3B9C
:1003D000D10780E00807A9F76CD60C94C41210CEA0
:1003E000CF92DF92EF92FF920F931F93CF93DF9301
:1003F0006C017A018B01C0E0D0E0CE15DF0581F001
:10040000D8016D918D01D601ED91FC910190F081A3
:10041000E02DC6011995892B11F02196EECF7E01B2
:10042000C701DF91CF911F910F91FF90EF90DF9067
:10043000CF900895089580E090E00895FC01538DD9
:10044000448D252F30E0842F90E0821B930B5417AE
:1004500010F0CF96089501970895FC01918D828D3B
:10046000981761F0828DDF01A80FB11D5D968C9108
:10047000928D9F5F9F73928F90E008958FEF9FEF13
:100480000895FC01918D828D981731F0828DE80FCF
:10049000F11D858D90E008958FEF9FEF0895FC0189
:1004A000918D228D892F90E0805C9F4F821B910956
:1004B0008F73992708958CEF92E0F1DF21E0892B6B
:1004C00009F420E0822F089589E993E0E8DF21E034
:1004D000892B09F420E0822F0895FC01848DDF012F
:1004E000A80FB11DA35ABF4F2C91848D90E00196A7
:1004F0008F739927848FA689B7892C93A089B18996
:100500008C91837080648C93938D848D981306C036
:100510000288F389E02D80818F7D80830895EF929A
:10052000FF920F931F93CF93DF93EC0181E0888FAD
:100530009B8D8C8D981305C0E889F989808185FD94
:1005400025C0F62E0B8D10E00F5F1F4F0F73112784
:10055000E02E8C8DE8120BC00FB607FCFACFE889AD
:10056000F989808185FFF5CFCE01B7DFF2CF8B8D82
:10057000FE01E80FF11DE35AFF4FF0829FB7F89498
:100580000B8FEA89FB89808180620AC09FB7F8944B
:10059000EE89FF896083E889F989808183708064AE
:1005A00080839FBF81E090E0DF91CF911F910F91F9
:1005B000FF90EF900895CF93DF93EC01888D88230F
:1005C000C1F0EA89FB89808185FD05C0A889B989C8
:1005D0008C9186FD0EC00FB607FCF5CF808185FF9C
:1005E000F2CFA889B9898C9185FFEDCFCE0175DF57
:1005F000E8CFDF91CF91089580E090E0892B19F04A
:1006000063DF811120C080E090E0892B41F080E021
:1006100090E0892B21F00E940000811117C080E03A
:1006200090E0892B19F047DF811113C080E090E042
:10063000892BA1F080E090E0892B81F00E940000DE
:1006400081110AC008950E940000DDCF0E940000C1
:10065000E6CF0E940000EACF0C9400000895DF92DC
:10066000EF92FF920F931F93CF93DF93D82EEB015E
:10067000E12CF12C0BE11CE1811144C0EC16FD06CC
:100680000CF084C061E082E0D4D360E083E0D1D399
:1006900060E084E0CED361E085E0CBD3C801019770
:1006A000F1F761E082E0C5D360E083E0C2D361E0AE
:1006B00084E0BFD360E085E0BCD3C8010197F1F7C7
:1006C00060E082E0B6D361E083E0B3D361E084E030
:1006D000B0D360E085E0ADD3C8010197F1F760E0E9
:1006E00082E0A7D361E083E0A4D360E084E0A1D3FB
:1006F00061E085E09ED3C8010197F1F72FEFE21A80
:10070000F20ABCCFEC16FD060CF040C060E082E0BF
:1007100090D361E083E08DD360E084E08AD361E030
:1007200085E087D3C8010197F1F760E082E081D3CB
:1007300061E083E07ED361E084E07BD360E085E02C
:1007400078D3C8010197F1F761E082E072D360E0ED
:1007500083E06FD361E084E06CD360E085E069D32F
:10076000C8010197F1F761E082E063D360E083E0C4
:1007700060D360E084E05DD361E085E05AD3C801D6
:100780000197F1F73FEFE31AF30ABCCF60E082E094
:1007900050D360E083E04DD360E084E04AD360E072
:1007A00085E047D38091EA029091EB02D11005C019
:1007B0009C012C1B3D0BE90102C0C80FD91FD0932F
:1007C000EB02C093EA02DF91CF911F910F91FF904E
:1007D000EF90DF900895CF92DF92FF920F931F93D7
:1007E000CF93DF93F82EEB0160E089E022D36F2DE9
:1007F00088E01FD36AE070E080E090E0A3D300E0DF
:1008000010E08BE7C82E8CE0D82E0C171D077CF467
:1008100061E087E00ED3C6010197F1F760E087E061
:1008200008D3C6010197F1F70F5F1F4FEECF60911C
:10083000EC027091ED02F11003C06C0F7D1F02C03D
:100840006C1B7D0B7093ED026093EC02DF91CF91F6
:100850001F910F91FF90DF90CF9008950E94A612F4
:100860000C9447111F920F920FB60F9211240BB6E2
:100870000F922F933F934F935F936F937F938F9339
:100880009F93AF93BF93EF93FF938CEF92E025DE9E
:10089000FF91EF91BF91AF919F918F917F916F9158
:1008A0005F914F913F912F910F900BBE0F900FBE14
:1008B0000F901F9018951F920F920FB60F92112450
:1008C0000BB60F922F938F939F93EF93FF93E0912B
:1008D0000C03F0910D038081E0911203F09113035A
:1008E00082FD12C09081809115038F5F8F732091DC
:1008F0001603821751F0E0911503F0E0E450FD4F2C
:10090000958F8093150301C08081FF91EF919F9196
:100910008F912F910F900BBE0F900FBE0F901F90D5
:1009200018951F920F920FB60F9211240BB60F92CB
:100930002F933F934F935F936F937F938F939F93E7
:10094000AF93BF93EF93FF9389E993E0C6DDFF91E7
:10095000EF91BF91AF919F918F917F916F915F9137
:100960004F913F912F910F900BBE0F900FBE0F90A4
:100970001F9018951F920F920FB60F9211240BB66D
:100980000F922F938F939F93EF93FF93E091A9037F
:10099000F091AA038081E091AF03F091B00382FD52
:1009A00012C090818091B2038F5F8F732091B30347
:1009B000821751F0E091B203F0E0E756FC4F958FBB
:1009C0008093B20301C08081FF91EF919F918F913D
:1009D0002F910F900BBE0F900FBE0F901F90189588
:1009E0003FB7F8948091740490917504A0917604B7
:1009F000B091770426B5A89B05C02F3F19F001964A
:100A0000A11DB11D3FBFBA2FA92F982F8827820F94
:100A1000911DA11DB11DBC01CD0142E0660F771FE4
:100A2000881F991F4A95D1F70895CF92DF92EF92D0
:100A3000FF92CF93DF93EC016A017B01E889F9898A
:100A400082E080834115514E61057105B1F060E08F
:100A500079E08DE390E0A70196010E947C12DA0113
:100A6000C9010197A109B109B695A79597958795F1
:100A70009C01211580E13807A8F0E889F9891082E6
:100A800060E874E88EE190E0A70196010E947C1274
:100A9000DA01C9010197A109B109B695A795979502
:100AA00087959C01EC85FD853083EE85FF8520834D
:100AB000188EEC89FD8986E08083EA89FB89808134
:100AC00080618083EA89FB89808188608083EA89EC
:100AD000FB89808180688083EA89FB8980818F7DA2
:100AE0008083DF91CF91FF90EF90DF90CF900895BA
:100AF000009761F0FC0101900020E9F73197AF0108
:100B0000481B590BBC0189E993E06ACC80E090E076
:100B100008958DEC92E0ECCF0F931F93CF93DF936A
:100B20008C01C0E0D0E0F801EC0FFD1F649166235A
:100B300039F089E993E0F3DC892B11F02196F3CFAA
:100B4000CE01DF91CF911F910F910895CF93DF9345
:100B5000E3DFEC01DEDF8C0F9D1FDF91CF91089565
:100B60008F929F92AF92BF920F931F93CF93DF9379
:100B7000CDB7DEB7A1970FB6F894DEBF0FBECDBFDD
:100B800019A2423008F44AE08E010F5D1F4F842EF7
:100B9000912CA12CB12CA50194010E947C12E62F6E
:100BA000B901CA0101501109EA3014F4E05D01C035
:100BB000E95CD801EC93232B242B252B61F7C8018A
:100BC00097DFA1960FB6F894DEBF0FBECDBFDF91C1
:100BD000CF911F910F91BF90AF909F908F900895EC
:100BE0004F925F926F927F928F929F92AF92BF923D
:100BF000CF92DF92EF92FF926B017C019B01AC01DF
:100C00000E947812882319F080ED92E027C04601F7
:100C10005701E894B7F82FEF3FEF4FE75FE7C501C3
:100C2000B4010E94781281110DC02FEF3FEF4FE702
:100C30005FE7C501B4010E942B1018161CF484ED67
:100C400092E00CC02FEF3FEF4FE75FE4C701B60122
:100C50000E94741218167CF488ED92E0FF90EF90D9
:100C6000DF90CF90BF90AF909F908F907F906F90CC
:100C70005F904F903DCF2FEF3FEF4FE75FECC70105
:100C8000B6010E942B1087FDE7CF20E030E0A901DC
:100C9000C701B6010E942B1087FF0AC06DE289E9E7
:100CA00093E03DDC5C01F7FAF094F7F8F09402C0B1
:100CB000A12CB12C2AE037ED43EA5BE3C701B60172
:100CC0000E9477112B013C010E9448126B017C01AC
:100CD0000E942F109B01AC01C301B2010E9476114A
:100CE0002B013C014AE0C701B6013ADF7C01EA0C66
:100CF000FB1C6EE289E993E012DCE80EF91E20E0AD
:100D000030E040E251E4C301B2010E9490102B0197
:100D10003C010E9448124B01A12CB12C4AE0C501B4
:100D2000B4011EDFE80EF91EC501B4010E942F10A8
:100D30009B01AC01C301B2010E94761120E030E0BA
:100D400040E251E40E9490100E94481280E090E03E
:100D50004AE006DF8E0D9F1DFF90EF90DF90CF9051
:100D6000BF90AF909F908F907F906F905F904F90CB
:100D70000895CF93DF93BCDEEC01CBDE8C0F9D1F7B
:100D8000DF91CF91089590E0FC013197E231F105B8
:100D900008F04EC08827EE58FF4F8F4F0C949E12DC
:100DA000809180008F7703C0809180008F7D809339
:100DB0008000089580918000877FF9CF84B58F7778
:100DC00002C084B58F7D84BD08958091B0008F7777
:100DD00003C08091B0008F7D8093B0000895809112
:100DE00090008F7707C0809190008F7D03C0809125
:100DF0009000877F8093900008958091A0008F7766
:100E000007C08091A0008F7D03C08091A000877FE4
:100E10008093A0000895809120018F7707C0809172
:100E200020018F7D03C080912001877F8093200166
:100E300008951F93CF93DF93282F30E0F901EB5CE7
:100E4000FC4F8491F901E151FD4FD491F901E7552F
:100E5000FD4FC491CC23B9F0162F811194DFEC2FF4
:100E6000F0E0EE0FFF1FE157FD4FA591B4919FB742
:100E7000F894111104C08C91D095D82302C0EC9144
:100E8000DE2BDC939FBFDF91CF911F910895CF930D
:100E9000DF9390E0FC01E151FD4F2491FC01E75507
:100EA000FD4F8491882361F190E0880F991FFC0128
:100EB000EB58FD4FC591D491FC01E157FD4FA59131
:100EC000B491611109C09FB7F8948881209582235D
:100ED0008883EC912E230BC0623061F49FB7F894A5
:100EE0008881322F309583238883EC912E2B2C938D
:100EF0009FBF06C08FB7F894E8812E2B28838FBF41
:100F0000DF91CF910895863308F0865390917B004E
:100F1000282F2870977F922B90937B008770806496
:100F200080937C0080917A00806480937A00809125
:100F30007A0086FDFCCF809178002091790090E0C6
:100F4000922B08958F929F92AF92BF92CF92DF9291
:100F5000EF92FF926B017C0143DD4B015C01C114F8
:100F6000D104E104F104E9F03BDDDC01CB01881997
:100F70009909AA09BB09883E9340A105B10578F3F8
:100F800021E0C21AD108E108F10888EE880E83E05A
:100F9000981EA11CB11CC114D104E104F10421F775
:100FA000DECFFF90EF90DF90CF90BF90AF909F90FB
:100FB0008F9008952FB7F894609170047091710428
:100FC00080917204909173042FBF08950F931F9323
:100FD000CF93DF93EC01EEDF688779878A879B8761
:100FE000CE013BDA97FF16C0E5DF088519852A8513
:100FF0003B85DC01CB01801B910BA20BB30B0C8159
:101000001D812E813F8180179107A207B30740F30E
:101010008FEF9FEFDF91CF911F910F9108951F9256
:101020000F920FB60F9211242F933F938F939F939C
:10103000AF93BF938091700490917104A09172045A
:10104000B091730430916F0423E0230F2D3720F407
:101050000196A11DB11D05C026E8230F0296A11D12
:10106000B11D20936F048093700490937104A0933A
:101070007204B09373048091740490917504A091EC
:101080007604B09177040196A11DB11D809374047C
:1010900090937504A0937604B0937704BF91AF91B9
:1010A0009F918F913F912F910F900FBE0F901F90A6
:1010B0001895CF93DF93CDB7DEB766970FB6F89448
:1010C000DEBF0FBECDBF789484B5826084BD84B589
:1010D000816084BD85B5826085BD85B5816085BD33
:1010E00080916E00816080936E00109281008091EB
:1010F0008100826080938100809181008160809373
:101100008100809180008160809380008091B10097
:1011100084608093B1008091B00081608093B000C2
:101120008091910082608093910080919100816014
:1011300080939100809190008160809390008091D5
:10114000A10082608093A1008091A10081608093C2
:10115000A1008091A00081608093A0008091210176
:10116000826080932101809121018160809321011F
:101170008091200181608093200180917A008460B9
:1011800080937A0080917A00826080937A008091C7
:101190007A00816080937A0080917A0080688093E1
:1011A0007A001092C10040E855E260E070E089E901
:1011B00093E03BDC40E855E260E070E08CEF92E0C9
:1011C00034DC08E012E0D8018C910E5F1F4F61E023
:1011D0005EDEB2E006311B07B1F761E088E057DE62
:1011E00061E087E054DE61E089E051DE60E08BE0A1
:1011F0004EDE61E082E04BDE61E083E048DE61E0EC
:1012000084E045DE61E085E042DE60E086E03FDECE
:1012100085E490E0909337048093360480E090E07A
:10122000A0EAB0E48093380490933904A0933A0480
:10123000B0933B0480E090E0A0E8B4E480933C04E9
:1012400090933D04A0933E04B0933F0460E085E496
:101250001EDEA7E5EA2EA4E0FA2E00E010E0809161
:10126000440490914504800F911FFADAF7018193AD
:101270007F010F5F1F4F0430110589F7009144046F
:1012800010914504C801ECDA8F3F49F0CE01039676
:101290009E8B8D8B1E0198E0290E311C3CC0C8012D
:1012A0000196DEDA8F3F91F7C8010296D9DA8F3FB7
:1012B00069F7C8010396D4DA8F3F41F780E090E0E8
:1012C000A0E8BFE38093570490935804A093590477
:1012D000B0935A0487E5E82E84E0F82E00E010E091
:1012E000D7016D917D018091440490914504800F58
:1012F000911FD5D70F5F1F4F0430110589F7C6CF57
:1013000089E993E063DE97FF0CC0E1E0F0E0F09341
:10131000F902E093F80289E993E0C1D8892B81F7BB
:101320000AC08093FA0289E993E050DE97FDEDCF81
:101330008093FB02EACF8091F8029091F902019725
:1013400009F096C38091FA028134A9F46091FB02FE
:10135000062E000C770B880B990B83D620EE3CE908
:1013600041E95DE30E94DB110E94431281E033DA20
:1013700088E292E0FEDC8091FA028234A9F4609166
:10138000FB02062E000C770B880B990B6AD620EE19
:101390003CE941E95DE30E94DB110E94431280E0D9
:1013A0001ADA8DE292E0E5DC8091FA028334A1F44E
:1013B0006091FB02062E000C770B880B990B51D61F
:1013C00020E030E040E851E4ABD60E94431281E0D7
:1013D00046D982E392E0CDDC8091FA028434A1F414
:1013E0006091FB02062E000C770B880B990B39D607
:1013F00020E030E040E851E493D60E94431280E0C0
:101400002ED987E392E0B5DC8091FA02853409F0A9
:1014100039C060E089E00DDD61E088E00ADD6091BF
:10142000EC027091ED0281E0D6D9E4EBCE2EE2E041
:10143000DE2EFBE7EF2EFCE0FF2E0BE21CE0E0E4EB
:10144000F3E08491EAEFF2E0A490F601B490BB20BF
:1014500009F411C3811197DCEB2DF0E0EE0FFF1FB3
:10146000E55AFD4FA591B4918C91A82209F403C3CC
:1014700061E089E0DEDC1092ED021092EC0288EC73
:1014800092E077DC8091FA028634C9F46091EA0236
:101490007091EB0280E0E3D860E082E0CADC60E0BB
:1014A00083E0C7DC60E084E0C4DC60E085E0C1DCB0
:1014B0001092EB021092EA028CE392E05ADC8091E7
:1014C000FA02833591F460E082E0B3DC60E083E00F
:1014D000B0DC60E084E0ADDC60E085E0AADC61E0E7
:1014E00089E0A7DC81E492E044DC8091FA02873451
:1014F00031F460E082E19DDC86E492E03ADC8091A8
:10150000FA02883431F461E082E193DC81E592E013
:1015100030DC8091FA02893409F075C0CE01019661
:101520006C017E0195E1E90EF11C860184E4EBDC9F
:10153000D8018D939D938D0165E070E080E090E08F
:1015400001DD0E151F0591F780E090E00196F60190
:101550009C01D6014D915C91119762817381641752
:10156000750724F46D937C93538342832F5F3F4F21
:1015700032962A30310569F7B2E0CB0ED11C8930A2
:10158000910521F7FE0135969E012F5E3F4F60E0E9
:1015900070E0CB01419151916A01550FEE08FF08AF
:1015A0006C0D7D1D8E1D9F1D2E173F0799F757D57A
:1015B00020E030E040EA50E4B3D520E030E040E8FD
:1015C0005AE3AED520E030E040EC50E4F4D620E021
:1015D00030E040E650E4A4D56093F4027093F50245
:1015E0008093F6029093F7028DE592E081DA6091A4
:1015F000F4027091F5028091F6029091F702F0DA10
:1016000082E692E0B6DB8091FA028A3409F03BC1AF
:1016100080E090E0A8ECB1E4809340049093410412
:10162000A0934204B0934304809136046CDCBC0167
:10163000990F880B990B15D560935B0470935C042C
:1016400080935D0490935E0420913C0430913D04AE
:1016500040913E0450913F04AED620913804309121
:10166000390440913A0450913B045AD56B017C01F6
:1016700060935F04709360048093610490936204AC
:1016800025E83BE645E053E44BD5A701960148D554
:10169000A701960145D54B015C0129E23CED4FE7DE
:1016A00053E4C701B6013CD5A701960139D59B018A
:1016B000AC01C501B4011AD64B015C0126EF38E537
:1016C00046E554E4C701B6012BD59B01AC01C50129
:1016D000B4010DD62091570430915804409159041B
:1016E00050915A041DD56B017C0160936304709383
:1016F0006404809365049093660420E030E048EC35
:1017000051E46091400470914104809142049091B1
:101710004304ECD52AE037ED43EA5CE301D520E051
:1017200030E040E85FE3E3D59B01AC01C701B601BF
:1017300042D6609367047093680480936904909321
:101740006A0420E030E040E05FE3EAD460936B0499
:1017500070936C0480936D0490936E048091E20208
:1017600081110CC027DC6093DE027093DF0280934E
:10177000E0029093E10281E08093E20210E189E9C6
:1017800093E00E944F02181619060CF05DC012DC9F
:10179000C090DE02D090DF02E090E002F090E10223
:1017A000DC01CB018C199D09AE09BF09853F914031
:1017B000A105B10540F010925604A6E4B4E0E12F73
:1017C0001D92EA95E9F7F6DB6093DE027093DF0283
:1017D0008093E0029093E10289E993E00E942D0258
:1017E0008A3021F0909156049F3071F41092560483
:1017F00086E494E026D467E672E086E494E0AAD614
:10180000892B09F045C109C0E92FF0E0EA5CFB4FE4
:10181000808B9F5F90935604B2CF6DE672E086E4B2
:1018200094E098D6892B09F041C162E772E086E422
:1018300094E090D6009709F067C18091DD0288237B
:1018400019F08DE492E082D980916B0490916C0440
:10185000A0916D04B0916E048093F0029093F10218
:10186000A093F202B093F30287E792E041D960912E
:10187000F0027091F1028091F2029091F302B0D9DE
:101880008CE792E076DA8091FA028B3409F074C02A
:101890001A82198285E0AD89BE891D928A95E9F781
:1018A00048E050E060E072E08CEF92E00E94F001CE
:1018B0008BE19EE40197F1F78CEF92E00E944F02DA
:1018C0000797D4F38CEF92E00E944F02892B79F0B6
:1018D0008E010F5F1F4F8CEF92E078DB97FDF2CF08
:1018E000F80181938F012E163F06A9F7EBCF2C81CB
:1018F0004D81822F90E0807F99272F70820F911D5C
:1019000024E0880F991F2A95E1F7242F30E054E056
:10191000369527955A95E1F7820F931F64E0880F5B
:10192000991F6A95E1F74F70840F911D9093EF0214
:101930008093EE0281E892E0DBD8C090EE02D09076
:10194000EF020D2C000CEE08FF08F7FE0EC06DE252
:1019500089E993E00E948F0266277727CB016C19F3
:101960007D098E099F094AE003C04AE0C701B6011C
:10197000F7D887E892E0FDD98091FA028C3431F4EF
:1019800061E083E156DA8CE892E0F3D98091FA02C3
:101990008D3431F460E083E14CDA81E992E0E9D9F9
:1019A0008091FA028E3431F461E084E142DA86E912
:1019B00092E0DFD98091FA028F3431F460E084E163
:1019C00038DA8BE992E0D5D98091FA02803531F48A
:1019D00061E085E12EDA80EA92E0CBD98091FA02CB
:1019E000813531F460E085E124DA85EA92E0C1D9FD
:1019F0008091FA02823531F461E086E11ADA8AEAEE
:101A000092E0B7D98091FA02843531F460E086E142
:101A100010DA8FEA92E0ADD98091FA02853531F47F
:101A200061E087E106DA84EB92E0A3D98091FA02C3
:101A3000863531F460E087E1FCD989EB92E099D9F1
:101A40008091FA02873531F461E088E1F2D98EEBBA
:101A500092E08FD98091FA02883531F460E088E114
:101A6000E8D983EC92E085D91092F9021092F8023D
:101A70000E94FC0250CC61E087E0DBD9C7010197EE
:101A8000F1F760E087E0D5D9C8010197F1F7D7CC2D
:101A900081E08093DD021092DC023BD880E392E08B
:101AA00055D883EF91E052D834D8CECE8091DD0264
:101AB000882309F4C9CE2DD88091DC028823C1F097
:101AC00007E514E0E12CF12CD8016D918D01809196
:101AD0004404909145048E0D9F1DE1D3BFEFEB1A96
:101AE000FB0AE4E0EE16F10479F783E791E002C027
:101AF0008DE591E011D883E491E028D80AD81092BE
:101B0000DC021092DD02A0CE60E070E0049626D1E7
:101B10002091DD02222309F497CE9B01AC01E7D38B
:101B20006B017C0120E030E048EC51E4609140041E
:101B3000709141048091420490914304D7D32AE0EC
:101B400037ED43EA5CE3ECD220E030E040E85FE3CD
:101B5000CED3A7019601E4D24B015C01C0905F0493
:101B6000D0906004E0906104F090620425E83BE6C8
:101B700045E053E4C701B601D3D2A7019601D0D204
:101B8000A7019601CDD22B013C0129E23CED4FE7A4
:101B900053E4C701B601C4D2A7019601C1D29B018B
:101BA000AC01C301B201A2D32B013C0126EF38E501
:101BB00046E554E4C701B601B3D29B01AC01C301B1
:101BC000B20195D39B01AC01C501B401F4D36B0103
:101BD0007C0120E030E0A901C501B40185D41816CC
:101BE000ACF520E030E04AEF54E4C501B40133D253
:101BF00087FF2CC020E030E040E85EE3C701B6017B
:101C000073D418161CF520E030E040E850E4C7011A
:101C1000B60121D287FF1AC00E9489058AED91E0A2
:101C20000E948C05C701B6010E94F0058AEB91E085
:101C30000E94A605C0925704D0925804E09259041D
:101C4000F0925A0481E08093DC02FECD0E94890567
:101C50008BE991E00E94A6050E9489051092DC02A2
:101C6000F3CDECEFF2E01382128248EE53E060E035
:101C700070E044835583668377838AE192E09183A1
:101C8000808325ED30E03587248724ED30E03787E9
:101C9000268720ED30E0318B208B21ED30E0338B37
:101CA000228B22ED30E0358B248B26ED30E0378B14
:101CB000268B118E128E138E148EE9E9F3E01382B7
:101CC000128244835583668377839183808385EC76
:101CD00090E09587848784EC90E09787868780ECF6
:101CE00090E0918B808B81EC90E0938B828B82ECE7
:101CF00090E0958B848B86EC90E0978B868B118E91
:101D0000128E138E148EE6E3F4E087E390E0918365
:101D1000808380E090E0A8ECB1E482879387A48779
:101D2000B58780E090E0A0EAB0E482839383A48347
:101D3000B58380E090E0A0E8B4E486839783A08731
:101D4000B18788E090E09787868780E090E0A0E800
:101D5000BFE381A392A3A3A3B4A308958F929F92FC
:101D6000AF92BF92CF92DF92EF92FF920F931F93A9
:101D7000CF93DF93EC016B016115710519F0FB0145
:101D8000918380837E01FFEFEF1AFF0A0881802F85
:101D900090E037D1892B11F0E701F4CF0D3239F4FF
:101DA0007E0182E0E80EF11C098111E008C00B32CF
:101DB00029F47E0192E0E90EF11C098110E0E701AF
:101DC000219743E050E060E171E0CE0122D1892B00
:101DD000B9F4239645E050E06BE071E0CE0119D1F3
:101DE000892B09F42596C114D10419F0F601D18389
:101DF000C0831111F0C060E070E080E89FE7F4C09C
:101E000043E050E068E071E0CE0103D1892B59F442
:101E1000C114D10409F4E4C0F2E0EF0EF11CF601A4
:101E2000F182E082DDC020E030E0A901C0E0D0E036
:101E3000F70160EDA62EA00E89E08A1528F1912FFA
:101E40009260B92E812F887012FF04C0811123C0C7
:101E5000219621C081112197A5E0B0E02ED2DC01AE
:101E6000CB01880F991FAA1FBB1F9C01AD012A0D32
:101E7000311D411D511D283989E93807480789E17D
:101E8000580748F0166006C09EEFA9120AC013FD5D
:101E900040C01860B12E8FEFE81AF80A00811B2DA0
:101EA000C7CF802F8F7D8534A1F580818D3211F4CD
:101EB000106106C08B3221F0319661E070E004C001
:101EC0008181329662E070E080538A3018F0E61B20
:101ED000F70B1FC060E070E060389CE079075CF4AD
:101EE000DB01AA0FBB1FAA0FBB1F6A0F7B1F660F68
:101EF000771F680F711D3196DF0111978C91805308
:101F00008A3050F314FF03C0719561957109C60FB3
:101F1000D71F11FF08C0C114D10429F0CF010197C8
:101F2000F60191838083CA01B90199D0212F2370D2
:101F3000233019F04B015C0106C04B015C01B7FA7C
:101F4000B094B7F8B09420E030E0A901C501B40125
:101F500082D0882309F43CC0D7FF06C0D195C19533
:101F6000D10907E211E002C00FE311E06801F8E1D6
:101F7000CF1AD10890E2E92EF12CCE15DF056CF0D6
:101F8000F8012591359145915491C501B401C8D00E
:101F90004B015C01CE19DF09F0CF04501109F59413
:101FA000E7940C151D0549F78A2D880F8B2D881F86
:101FB0008F3F41F020E030E0A901C501B4014BD0D2
:101FC000811106C082E290E09093790480937804B6
:101FD000C501B40109C060E070E080E89FEF04C073
:101FE00060E070E080EC9FE7DF91CF911F910F914F
:101FF000FF90EF90DF90CF90BF90AF909F908F9029
:1020000008959111F0C0803219F089508550D0F7B1
:102010000895FB01DC014150504088F08D918134DE
:102020001CF08B350CF4805E659161341CF06B35CF
:102030000CF4605E861B611171F3990B0895881B87
:10204000FCCFDC016C9161566A3108F0605E6F5B19
:102050006D93C1F7089540D008F481E00895E894A5
:1020600009C097FB3EF490958095709561957F4FE0
:102070008F4F9F4F9923A9F0F92F96E9BB2793958E
:10208000F695879577956795B795F111F8CFFAF49E
:10209000BB0F11F460FF1BC06F5F7F4F8F4F9F4FCF
:1020A00016C0882311F096E911C0772321F09EE82D
:1020B000872F762F05C0662371F096E8862F70E093
:1020C00060E02AF09A95660F771F881FDAF7880F6D
:1020D0009695879597F90895990F0008550FAA0BC3
:1020E000E0E8FEEF16161706E807F907C0F012162B
:1020F0001306E407F50798F0621B730B840B950B2E
:1021000039F40A2661F0232B242B252B21F4089582
:102110000A2609F4A140A6958FEF811D811D08951F
:102120000BD07BC06CD028F071D018F0952309F04B
:102130005DC062C01124A5C081D0A0F3959FD1F3EA
:10214000950F50E0551F629FF001729FBB27F00D65
:10215000B11D639FAA27F00DB11DAA1F649F6627BA
:10216000B00DA11D661F829F2227B00DA11D621F09
:10217000739FB00DA11D621F839FA00D611D221FC3
:10218000749F3327A00D611D231F849F600D211DA7
:10219000822F762F6A2F11249F5750408AF0E1F04A
:1021A00088234AF0EE0FFF1FBB1F661F771F881F93
:1021B00091505040A9F79E3F510570F017C061C083
:1021C0005F3FECF3983EDCF3869577956795B7957E
:1021D000F795E7959F5FC1F7FE2B880F911D9695A8
:1021E000879597F9089599278827089597F99F6704
:1021F00080E870E060E008959FEF80EC089500248F
:102200000A941616170618060906089500240A945B
:1022100012161306140605060895092E0394000CE1
:1022200011F4882352F0BB0F40F4BF2B11F460FF70
:1022300004C06F5F7F4F8F4F9F4F089557FD905899
:10224000440F551F59F05F3F71F04795880F97FB7A
:10225000991F61F09F3F79F0879508951216130634
:102260001406551FF2CF4695F1DF08C01616170663
:102270001806991FF1CF8695710561050894089598
:10228000E894BB2766277727CB0197F90895F9993A
:10229000FECF92BD81BDF89A992780B50895262F6B
:1022A000F999FECF1FBA92BD81BD20BD0FB6F8943B
:1022B000FA9AF99A0FBE0196089509D0A59F900D3C
:1022C000B49F900DA49F800D911D11240895A29F8D
:1022D000B001B39FC001A39F700D811D1124911DFA
:1022E000B29F700D811D1124911D08955058BB2778
:1022F000AA270ED092CF83DF30F088DF20F031F4B0
:102300009F3F11F41EF478CF0EF4E095E7FB6ECFFB
:10231000E92F94DF80F3BA176207730784079507E4
:1023200018F071F49EF5ACCF0EF4E0950B2EBA2F99
:10233000A02D0B01B90190010C01CA01A0011124CB
:10234000FF27591B99F0593F50F4503E68F11A1677
:10235000F040A22F232F342F4427585FF3CF469508
:1023600037952795A795F0405395C9F77EF41F162A
:10237000BA0B620B730B840BBAF09150A1F0FF0FF4
:10238000BB1F661F771F881FC2F70EC0BA0F621FE0
:10239000731F841F48F4879577956795B795F795D0
:1023A0009E3F08F0B3CF9395880F08F09927EE0F62
:1023B0009795879508950CD030CF28DF40F01FDF28
:1023C00030F021F45F3F19F011CF51115ACF14CFE3
:1023D00035DF98F39923C9F35523B1F3951B550BBA
:1023E000BB27AA2762177307840738F09F5F5F4FE8
:1023F000220F331F441FAA1FA9F333D00E2E3AF029
:10240000E0E830D091505040E695001CCAF729D042
:10241000FE2F27D0660F771F881FBB1F2617370791
:102420004807AB07B0E809F0BB0B802DBF01FF27C1
:1024300093585F4F2AF09E3F510568F0D7CE21CFC9
:102440005F3FECF3983EDCF3869577956795B795FB
:10245000F7959F5FC9F7880F911D9695879597F916
:102460000895E1E0660F771F881FBB1F621773078F
:102470008407BA0720F0621B730B840BBA0BEE1FA4
:1024800088F7E095089504D06894B111FACE0895C4
:10249000DDDE88F09F5790F0B92F9927B751A0F053
:1024A000D1F0660F771F881F991F1AF0BA95C9F7E8
:1024B00012C0B13081F0E4DEB1E00895E1CE672FC3
:1024C000782F8827B85F39F0B93FCCF38695779598
:1024D0006795B395D9F73EF4909580957095619581
:1024E0007F4F8F4F9F4F0895F7DD08F48FEF0895CA
:1024F000F3DD880B990B0895A1E21A2EAA1BBB1BD2
:10250000FD010DC0AA1FBB1FEE1FFF1FA217B307BF
:10251000E407F50720F0A21BB30BE40BF50B661FD5
:10252000771F881F991F1A9469F760957095809599
:1025300090959B01AC01BD01CF010895EE0FFF1FE7
:10254000881F8BBF0790F691E02D199481E090E0F1
:10255000F8941AC0FB0151915523A9F0BF01DC0189
:102560004D9145174111E1F759F4CD01019000203B
:1025700049F04D9140154111C9F3FB014111EFCFD5
:0C25800081E090E001970895F894FFCFEF
:10258C00FE0400030001D5C5120013001400150051
:10259C00160017001800000000008F02F0011E0248
:1025AC00DB024F022D0241024F4B2D41004F4B2DB0
:1025BC0042004F4B2D43004F4B2D44004F4B2D46AB
:1025CC00004F4B2D53004F4B2D47434F32204F4E56
:1025DC00004F4B2D48434F32204F46460020504869
:1025EC003A004F4B2D4900454E5445520045584931
:1025FC00540043414C3A002045433A004F4B2D4A7E
:10260C000020434F323A004F4B2D4B004F4B2D4C7B
:10261C00004F4B2D4D004F4B2D4E004F4B2D4F006F
:10262C004F4B2D50004F4B2D51004F4B2D52004F07
:10263C004B2D54004F4B2D55004F4B2D56004F4BEF
:10264C002D57004F4B2D58004F4B2D45000D0A00B8
:0C265C006E616E00696E66006F766600AD
:00000001FF
