:1000000014C1000043C1000041C100003FC1000015
:100010003DC100003BC1000039C1000037C10000F4
:1000200035C1000033C1000031C100002FC1000004
:100030002DC100002BC1000029C1000027C1000014
:1000400025C1000023C1000021C100001FC1000024
:100050001DC100001BC1000019C1000036C4000012
:1000600015C1000049C500001EC500000FC10000F9
:100070000DC100000BC1000009C1000007C1000054
:1000800005C1000003C1000001C10000FFC0000065
:10009000FDC00000FBC00000F9C0000056C5000014
:1000A000F5C00000F3C00000F1C00000EFC0000088
:1000B000EDC00000EBC00000E9C00000E7C0000098
:1000C000E5C00000E3C00000E1C00000C3C40000C0
:1000D00098C40000DBC000006BC4000040C40000F6
:1000E000D5C0000067096A0959095D096309A109BA
:1000F0006E09720978097C09800986098A098E09C6
:10010000A109940998099C090000200023002600F9
:1001100029002C002F00320000010000030106011D
:10012000090100002100240027002A002D003000D2
:10013000330001010000040107010A010000220050
:10014000250028002B002E003100340002010000A1
:10015000050108010B010505050507050808080844
:10016000020202020A0A080804040404010101014F
:10017000010101010303030303030303040707074A
:100180000C0C0C0C0C0C0C0C0202020206060606EF
:10019000060606060B0B0B0B0B0B0B0B01021020BC
:1001A00020080810204010204080020102010804AD
:1001B0000201010204081020408080402010080441
:1001C000020180040201804020100804020108049A
:1001D00002010102040810204080010204081020DE
:1001E000408000000A0B02090C0D0E0807030401F1
:1001F00000000000000000000000000000000000FF
:1002000000000000000000000000000000001211CB
:1002100010000000000000000000000000000000CE
:1002200000000000000000004F0F11241FBECFEFA0
:10023000D1E2DEBFCDBF00E00CBF25E0A8EEB2E00A
:1002400001C01D92AB3DB207E1F712E0A0E0B2E0C1
:10025000EAE9F4E200E00BBF02C007900D92A83E6D
:10026000B107D9F711E0C5E1D1E000E006C0219760
:100270000109802FFE010E943F12C431D10780E0A6
:100280000807A9F70E94630A0C944B12B9CE80911B
:100290004E0390E020914F03821B91090895089529
:1002A0000895CF92DF92EF92FF920F931F93CF9317
:1002B000DF936C017A018B01C0E0D0E0CE15DF0541
:1002C00081F0D8016D918D01D601ED91FC910190E5
:1002D000F081E02DC6011995892B11F02196EECF02
:1002E0007E01C701DF91CF911F910F91FF90EF9099
:1002F000DF90CF900895FC01538D448D252F30E081
:10030000842F90E0821B930B541710F0CF96089522
:1003100001970895FC01918D828D981761F0828D6F
:10032000DF01A80FB11D5D968C91928D9F5F9F7329
:10033000928F90E008958FEF9FEF0895FC01918DCB
:10034000828D981731F0828DE80FF11D858D90E038
:1003500008958FEF9FEF0895FC01918D228D892FD5
:1003600090E0805C9F4F821B91098F7399270895BD
:100370008FEB93E0F1DF21E0892B09F420E0822F5D
:1003800008958CE594E0E8DF21E0892B09F420E072
:10039000822F089589EF94E0DFDF21E0892B09F4B3
:1003A00020E0822F0895FC01848DDF01A80FB11D8C
:1003B000A35ABF4F2C91848D90E001968F7399279B
:1003C000848FA689B7892C93A089B1898C91837079
:1003D00080648C93938D848D981306C00288F38972
:1003E000E02D80818F7D80830895EF92FF920F939F
:1003F0001F93CF93DF93EC0181E0888F9B8D8C8DD1
:10040000981305C0E889F989808185FD25C0F62EFD
:100410000B8D10E00F5F1F4F0F731127E02E8C8D97
:10042000E8120BC00FB607FCFACFE889F989808182
:1004300085FFF5CFCE01B7DFF2CF8B8DFE01E80F40
:10044000F11DE35AFF4FF0829FB7F8940B8FEA89B2
:10045000FB89808180620AC09FB7F894EE89FF898A
:100460006083E889F98980818370806480839FBF7D
:1004700081E090E0DF91CF911F910F91FF90EF907D
:100480000895CF93DF93EC01888D8823C1F0EA892A
:10049000FB89808185FD05C0A889B9898C9186FD7D
:1004A0000EC00FB607FCF5CF808185FFF2CFA8897B
:1004B000B9898C9185FFEDCFCE0175DFE8CFDF9153
:1004C000CF91089580E090E0892B19F063DF8111CE
:1004D0001BC080E090E0892B41F080E090E0892B08
:1004E00021F00E940000811112C080E090E0892B71
:1004F00019F047DF81110EC080E090E0892B79F080
:1005000037DF81110AC008950E940000E2CF0E94E7
:100510000000EBCF0E940000EFCF0C940000089584
:1005200085ED8093BC008091BC0084FDFCCF1092CF
:100530009603089540910803262F30E0240F311DC3
:1005400021323105DCF4209196032430C9F4FC01FA
:1005500080E090E0861758F4309108032191DC0187
:10056000A851BD4FA30FB11D2C930196F3CF8091DD
:100570000803680F6093080380E0089581E0089500
:1005800082E008950895E0914F0380914E03E817AB
:1005900030F4F0E0E05BFC4F808190E008958FEF55
:1005A0009FEF089590914F0380914E03981750F458
:1005B000E92FF0E0E05BFC4F208130E09F5F9093FB
:1005C0004F0302C02FEF3FEFC9010895CF92DF9292
:1005D000EF92FF920F931F93CF93DF937C01CB0198
:1005E0008A0120919703222389F0EB016B01C40E4D
:1005F000D51ECC15DD0561F06991D701ED91FC9117
:100600000190F081E02DC7011995F3CF642F92DF9F
:10061000C801DF91CF911F910F91FF90EF90DF9074
:10062000CF900895CF93DF931F92CDB7DEB7698344
:10063000209197032223D1F02091BA03203240F079
:1006400021E030E0FC013383228380E090E014C09D
:1006500080919803E82FF0E0E756FC4F9981908352
:100660008F5F809398038093BA0304C061E0CE014A
:10067000019660DF81E090E00F90DF91CF910895C7
:10068000089580E090E00895EF92FF920F931F93FA
:10069000CF93DF937B0100E010E0CBE1DCE181113F
:1006A0004CC00E151F050CF094C061E082E04AD6E4
:1006B00060E083E047D660E084E044D661E085E016
:1006C00041D6CE010197F1F761E082E03BD660E0D0
:1006D00083E038D661E084E035D660E085E032D64C
:1006E000CE010197F1F760E082E02CD661E083E073
:1006F00029D661E084E026D660E085E023D6CE01ED
:100700000197F1F760E082E01DD661E083E01AD640
:1007100060E084E017D661E085E014D6CE01019751
:10072000F1F780912F03909130030197909330035C
:1007300080932F030F5F1F4FB4CF0E151F050CF0D2
:1007400048C060E082E0FED561E083E0FBD560E078
:1007500084E0F8D561E085E0F5D5CE010197F1F7A9
:1007600060E082E0EFD561E083E0ECD561E084E019
:10077000E9D560E085E0E6D5CE010197F1F761E0CB
:1007800082E0E0D560E083E0DDD561E084E0DAD5A9
:1007900060E085E0D7D5CE010197F1F761E082E016
:1007A000D1D560E083E0CED560E084E0CBD561E0D8
:1007B00085E0C8D5CE010197F1F780912F03909184
:1007C000300301969093300380932F030F5F1F4FE8
:1007D000B4CF60E082E0B6D560E083E0B3D560E0FE
:1007E00084E0B0D560E085E0DF91CF911F910F915B
:1007F000FF90EF90A7C5CF92DF92FF920F931F93C8
:10080000CF93DF93F82EEB0160E089E09BD56F2D4D
:1008100088E098D56AE070E080E090E01CD600E0C7
:1008200010E08BE7C82E8CE0D82E0C171D077CF447
:1008300061E087E087D5C6010197F1F760E087E0C6
:1008400081D5C6010197F1F70F5F1F4FEECF609181
:10085000310370913203F11003C06C0F7D1F02C091
:100860006C1B7D0B7093320360933103DF91CF914A
:100870001F910F91FF90DF90CF9008950E94471233
:100880003FB7F89480914A0390914B03A0914C0399
:10089000B0914D0326B5A89B05C02F3F19F00196D6
:1008A000A11DB11D3FBFBA2FA92F982F8827820FF6
:1008B000911DA11DB11DBC01CD0142E0660F771F46
:1008C000881F991F4A95D1F708951F920F920FB66E
:1008D0000F9211242F933F938F939F93AF93BF93C6
:1008E0008091BB039091BC03A091BD03B091BE0366
:1008F0003091490323E0230F2D3720F40196A11DE9
:10090000B11D05C026E8230F0296A11DB11D20933D
:1009100049038093BB039093BC03A093BD03B093A2
:10092000BE0380914A0390914B03A0914C03B09178
:100930004D030196A11DB11D80934A0390934B0373
:10094000A0934C03B0934D03BF91AF919F918F91B2
:100950003F912F910F900FBE0F901F9018951F92EF
:100960000F920FB60F9211240BB60F922F933F9355
:100970004F935F936F937F938F939F93AF93BF93A7
:10098000EF93FF938FEB93E00EDDFF91EF91BF911B
:10099000AF919F918F917F916F915F914F913F9117
:1009A0002F910F900BBE0F900FBE0F901F901895B8
:1009B0001F920F920FB60F9211240BB60F922F9326
:1009C0003F934F935F936F937F938F939F93AF93D7
:1009D000BF93EF93FF938FEB93E045D4FF91EF919B
:1009E000BF91AF919F918F917F916F915F914F9147
:1009F0003F912F910F900BBE0F900FBE0F901F9045
:100A000018951F920F920FB60F9211240BB60F92EA
:100A10002F933F934F935F936F937F938F939F9306
:100A2000AF93BF93EF93FF938CE594E0BCDCFF9111
:100A3000EF91BF91AF919F918F917F916F915F9156
:100A40004F913F912F910F900BBE0F900FBE0F90C3
:100A50001F9018951F920F920FB60F9211240BB68C
:100A60000F922F933F934F935F936F937F938F9347
:100A70009F93AF93BF93EF93FF938CE594E0F3D3F1
:100A8000FF91EF91BF91AF919F918F917F916F9166
:100A90005F914F913F912F910F900BBE0F900FBE22
:100AA0000F901F9018951F920F920FB60F9211245E
:100AB0000BB60F922F933F934F935F936F937F9358
:100AC0008F939F93AF93BF93EF93FF9389EF94E03E
:100AD0006ADCFF91EF91BF91AF919F918F917F91D0
:100AE0006F915F914F913F912F910F900BBE0F909F
:100AF0000FBE0F901F9018951F920F920FB60F9276
:100B000011240BB60F922F933F934F935F936F93E4
:100B10007F938F939F93AF93BF93EF93FF9389EF4F
:100B200094E0A1D3FF91EF91BF91AF919F918F91ED
:100B30007F916F915F914F913F912F910F900BBEDD
:100B40000F900FBE0F901F9018951F920F920FB627
:100B50000F9211240BB60F922F933F934F935F93F5
:100B60006F937F938F939F93AF93BF93EF93FF9375
:100B70008091B900887F803609F49CC068F588327E
:100B800009F45BC090F4803109F454C038F4882330
:100B900009F4F6C0883009F44DC0F5C0883109F475
:100BA0004CC0803209F45DC0EEC0803409F468C0E6
:100BB00048F4803309F455C0883309F0E4C08093C9
:100BC0009403D8C0803509F44FC0883509F45DC05E
:100BD000883409F0D8C0D6C0883909F4C7C0A8F451
:100BE000883709F467C038F4883609F463C0803761
:100BF00009F460C0C8C0883809F4B8C0803909F465
:100C00005FC0803809F0BFC05BC0803B09F486C07C
:100C100038F4803A09F466C0883A09F47FC0B3C05A
:100C2000803C09F4A7C0883C09F4A4C0883B09F4BF
:100C30008AC0A9C08091710310C0909193038091E4
:100C40009203981770F5E091930381E08E0F8093E3
:100C50009303F0E0EE58FC4F80818093BB0085EC5D
:100C600086C0809394038EC0E091930381E08E0F41
:100C7000809393038091BB00F0E0EE58FC4F80839B
:100C800090919303809192036EC0E091930381E071
:100C90008E0F809393038091BB00F0E0EE58FC4FE1
:100CA00080838091950381116DC081E080937003F2
:100CB00084EA61C083E08093960310922A03CFCF29
:100CC00080912A03803208F051C0E0912A0381E02C
:100CD0008E0F80932A038091BB00F0E0E65FFC4F0B
:100CE0008083BDCF85EC8093BC00109296038091E9
:100CF0002A03803230F4E0912A03F0E0E65FFC4FF3
:100D0000108260912A0370E0E0912B03F0912C0394
:100D10008AE093E0199510922A0335C084E080930D
:100D200096031092090310920803E0912D03F091AD
:100D30002E03199580910803811105C081E08093ED
:100D400008031092E802E091090381E08E0F80937E
:100D50000903F0E0E851FD4F80818093BB00909142
:100D6000090380910803981708F479CF85E88093E8
:100D7000BC0009C085EC8093BC001092960303C0B0
:100D800010929403CDDBFF91EF91BF91AF919F91B2
:100D90008F917F916F915F914F913F912F910F9024
:100DA0000BBE0F900FBE0F901F901895CF93DF933F
:100DB000EC012FB7F8948091BB039091BC03A091F4
:100DC000BD03B091BE032FBF88879987AA87BB87D1
:100DD000CE01A0DA97FF1EC02FB7F8948091BB0315
:100DE0009091BC03A091BD03B091BE032FBF488575
:100DF00059856A857B85841B950BA60BB70B4C81A7
:100E00005D816E817F8184179507A607B70700F380
:100E10008FEF9FEFDF91CF910895CF92DF92EF9206
:100E2000FF92CF93DF93EC016A017B01E889F98996
:100E300082E080834115514E61057105B1F060E09B
:100E400079E08DE390E0A70196010E941D12DA017E
:100E5000C9010197A109B109B695A79597958795FD
:100E60009C01211580E13807A8F0E889F9891082F2
:100E700060E874E88EE190E0A70196010E941D12DF
:100E8000DA01C9010197A109B109B695A79597950E
:100E900087959C01EC85FD853083EE85FF85208359
:100EA000188EEC89FD8986E08083EA89FB89808140
:100EB00080618083EA89FB89808188608083EA89F8
:100EC000FB89808180688083EA89FB8980818F7DAE
:100ED0008083DF91CF91FF90EF90DF90CF900895C6
:100EE000282F3091BA03313208F04AC0809196031E
:100EF0008111FCCF9091B90342E040939603209377
:100F000095032FEF20939403109293033093920351
:100F1000E9E9F3E0A2E7B3E020E0321721F04191E4
:100F20004D932F5FFACF1092710320917103990FA7
:100F3000922B9093710390917003913061F4109211
:100F40007003909171039093BB009091BC0093FD4E
:100F5000F8CF95EC01C095EE9093BC00909196036C
:100F60009230E1F3909194039F3F79F08091940344
:100F7000803241F080919403803331F084E005C0E9
:100F800081E003C082E001C083E0109298031092D8
:100F9000BA03109297030895909196039111FCCF94
:100FA000982F813208F090E281E08093960380933D
:100FB00095032FEF2093940310929303290F20930E
:100FC0009203809371038091710380688093710311
:100FD00080917003813061F41092700380917103ED
:100FE0008093BB008091BC0083FDF8CF85EC01C0ED
:100FF00085EE8093BC00809196038130E1F380916F
:101000009303891710F490919303E2E7F3E0A0E5CE
:10101000B3E080E0891721F021912D938F5FFACF03
:1010200010924F0380934E030895009761F0FC01E6
:1010300001900020E9F73197AF01481B590BBC0123
:101040008FEB93E02EC980E090E00895CF93DF937B
:10105000ECDFEC0189ED92E0E8DF8C0F9D1FDF9162
:10106000CF9108958F929F92AF92BF920F931F934B
:10107000CF93DF93CDB7DEB7A1970FB6F894DEBF5D
:101080000FBECDBF19A2423008F44AE08E010F5DB9
:101090001F4F842E912CA12CB12CA50194010E94EC
:1010A0001D12E62FB901CA0101501109EA3014F4EA
:1010B000E05D01C0E95CD801EC93232B242B252BA8
:1010C00061F7C801B2DFA1960FB6F894DEBF0FBE7C
:1010D000CDBFDF91CF911F910F91BF90AF909F90A7
:1010E0008F9008954F925F926F927F928F929F920E
:1010F000AF92BF92CF92DF92EF92FF926B017C0191
:101100009B01AC010E941912882319F08CED92E02A
:1011100026C046015701E894B7F82FEF3FEF4FE79D
:101120005FE7C501B4010E94191281110CC02FEFB5
:101130003FEF4FE75FE7C501B40160D718161CF415
:1011400080EE92E00CC02FEF3FEF4FE75FE4C70166
:10115000B6010E94151218167CF484EE92E0FF90FE
:10116000EF90DF90CF90BF90AF909F908F907F9047
:101170006F905F904F9059CF2FEF3FEF4FE75FECAD
:10118000C701B6013BD787FDE8CF20E030E0A901D9
:10119000C701B60133D787FF0AC06DE28FEB93E03A
:1011A00024D95C01F7FAF094F7F8F09402C0A12C6E
:1011B000B12C2AE037ED43EA5BE3C701B6010E9498
:1011C00018112B013C010E94E9116B017C011AD717
:1011D0009B01AC01C301B2010E9417112B013C011C
:1011E0004AE0C701B6013EDF7C01EA0CFB1C6EE25F
:1011F0008FEB93E0FAD8E80EF91E20E030E040E2F1
:1012000051E4C301B2015FD72B013C010E94E911F7
:101210004B01A12CB12C4AE0C501B40123DFE80E3B
:10122000F91EC501B401EED69B01AC01C301B201A8
:10123000FED720E030E040E251E445D70E94E911BA
:1012400080E090E04AE00EDF8E0D9F1DFF90EF9052
:10125000DF90CF90BF90AF909F908F907F906F90D6
:101260005F904F900895FC01A089B1898C91A68967
:10127000B78982FD0FC09C91818D8F5F8F73228D06
:10128000821749F0218DDF01A20FB11D5D969C935D
:10129000818F08958C91089590E0FC013197E2319F
:1012A000F10508F04EC08827EE58FF4F8F4F0C9481
:1012B0003F12809180008F7703C0809180008F7DE6
:1012C00080938000089580918000877FF9CF84B556
:1012D0008F7702C084B58F7D84BD08958091B00062
:1012E0008F7703C08091B0008F7D8093B000089508
:1012F000809190008F7707C0809190008F7D03C010
:1013000080919000877F8093900008958091A00045
:101310008F7707C08091A0008F7D03C08091A000CF
:10132000877F8093A0000895809120018F7707C068
:10133000809120018F7D03C080912001877F809361
:10134000200108951F93CF93DF93282F30E0F901F8
:10135000EE51FE4F8491F901E456FE4FD491F9010C
:10136000EA5AFE4FC491CC23B9F0162F811194DFB5
:10137000EC2FF0E0EE0FFF1FE45CFE4FA591B4915F
:101380009FB7F894111104C08C91D095D82302C056
:10139000EC91DE2BDC939FBFDF91CF911F910895DD
:1013A000CF93DF9390E0FC01E456FE4F2491FC01C3
:1013B000EA5AFE4F8491882361F190E0880F991FCB
:1013C000FC01EE5DFE4FC591D491FC01E45CFE4F43
:1013D000A591B491611109C09FB7F89488812095B7
:1013E00082238883EC912E230BC0623061F49FB777
:1013F000F8948881322F309583238883EC912E2BAB
:101400002C939FBF06C08FB7F894E8812E2B2883BA
:101410008FBFDF91CF910895863308F08653909166
:101420007B00282F2870977F922B90937B008770EA
:10143000806480937C0080917A00806480937A003D
:1014400080917A0086FDFCCF809178002091790010
:1014500090E0922B08958F929F92AF92BF92CF927D
:10146000DF92EF92FF926B017C010ADA4B015C0183
:10147000C114D104E104F104E9F002DADC01CB018A
:1014800088199909AA09BB09883E9340A105B105AD
:1014900078F321E0C21AD108E108F10888EE880E3D
:1014A00083E0981EA11CB11CC114D104E104F10415
:1014B00021F7DECFFF90EF90DF90CF90BF90AF90FD
:1014C0009F908F900895CF93DF93CDB7DEB7649749
:1014D0000FB6F894DEBF0FBECDBF789484B582609E
:1014E00084BD84B5816084BD85B5826085BD85B5C8
:1014F000816085BD80916E00816080936E00109246
:1015000081008091810082608093810080918100C0
:101510008160809381008091800081608093800051
:101520008091B10084608093B1008091B0008160AF
:101530008093B000809191008260809391008091AF
:1015400091008160809391008091900081608093F0
:1015500090008091A10082608093A1008091A10001
:1015600081608093A1008091A00081608093A000A1
:10157000809121018260809321018091210181600D
:1015800080932101809120018160809320018091CE
:101590007A00846080937A0080917A0082608093E0
:1015A0007A0080917A00816080937A0080917A003D
:1015B000806880937A001092C10040E855E260E0B4
:1015C00070E08FEB93E029DC40E855E260E070E0EA
:1015D0008CE594E022DC08E012E086E1E82E82E06F
:1015E000F82ED8018C910E5F1F4F61E0D9DEE01616
:1015F000F106B9F710924F0310924E031092980320
:101600001092BA031092960381E080939503109292
:10161000700361E084E196DE61E085E193DE809114
:10162000B9008E7F8093B9008091B9008D7F80933F
:10163000B90088E48093B80085E48093BC008FE40F
:1016400091E090932E0380932D0380E591E0909399
:101650002C0380932B0361E088E0A2DE61E087E049
:101660009FDE61E089E09CDE60E08BE099DE61E076
:1016700082E096DE61E083E093DE61E084E090DE6C
:1016800061E085E08DDE60E086E08ADE66246394BA
:10169000712C6E01B8E0CB0ED11C17EA212E11E09F
:1016A000312E01E6402E01E0502E8FEB93E00E9498
:1016B000AC01892B91F08FEB93E078DB97FD08C0AC
:1016C000809347038FEB93E071DB97FF8093480390
:1016D0007092460360924503E8CF80914503909154
:1016E0004603019709F0CAC380914703813499F4F6
:1016F00060914803062E000C770B880B990B84D45D
:1017000020EE3CE941E95DE3F7D55ED681E073D890
:101710008AE392E09BDC80914703823499F46091E4
:101720004803062E000C770B880B990B6DD420EE26
:101730003CE941E95DE3E0D547D680E05CD88FE342
:1017400092E084DC809147038334A1F460914803E4
:10175000062E000C770B880B990B56D420E030E056
:1017600040E851E4B0D430D681E00E94440384E4E0
:1017700092E06CDC809147038434A1F460914803CB
:10178000062E000C770B880B990B3ED420E030E03E
:1017900040E851E498D418D680E00E94440389E4DC
:1017A00092E054DC80914703853409F035C060E055
:1017B00089E0C8DD61E088E0C5DD609131037091AA
:1017C000320381E018D80BE21CE0EDEEF1E08491E9
:1017D000F101F490F201E490EE2009F452C381117A
:1017E0005BDDEE2DF0E0EE0FFF1FE85FFE4FA591F1
:1017F000B4918C91F82209F444C361E089E0A2DD40
:1018000010923203109231036CE271E080E090E0BC
:1018100022DE84ED92E01ADC809147038634F9F4ED
:1018200060912F037091300380E00E94440360E0D8
:1018300082E088DD60E083E085DD60E084E082DDD9
:1018400060E085E07FDD1092300310922F036CE2A0
:1018500071E080E090E0FFDD8EE492E0F7DB8091C4
:1018600047038335B9F460E082E06CDD60E083E03B
:1018700069DD60E084E066DD60E085E063DD61E015
:1018800089E060DD6CE271E080E090E0E4DD83E51A
:1018900092E0DCDB80914703873459F460E082E119
:1018A00051DD68EE73E080E090E0D5DD88E592E000
:1018B000CDDB80914703883459F461E082E142DD59
:1018C00068EE73E080E090E0C6DD83E692E0BEDB88
:1018D00080914703893409F079C08E010F5F1F4F53
:1018E0004E01F5E18F0E911C780184E495DDD7015E
:1018F0008D939D937D0165E070E080E090E0ABDD2D
:10190000E814F90491F780E090E00196F8019C0159
:10191000D8014D915C9111976281738164177507AD
:1019200024F46D937C93538342832F5F3F4F329611
:101930002A30310569F70E5F1F4F8930910529F76D
:10194000FE0135969E012F5E3F4F60E070E0CB01B7
:10195000419151914A01550FAA08BB08680D791DA4
:101960008A1D9B1DE217F30799F74CD320E030E066
:1019700040EA50E4A8D320E030E040E85AE3A3D3A3
:1019800020E030E040EC50E4B7D420E030E040E626
:1019900050E499D3609341037093420380934303CF
:1019A0009093440368EE73E080E090E054DD8FE6AE
:1019B00092E03BDB609141037091420380914303CD
:1019C000909144038FDB84E792E040DB80914703F2
:1019D0008A3409F067C07AE0F72E00E010E085E471
:1019E0001BDD080F191F64E670E080E090E033DD36
:1019F000FA94F110F4CFB80180E090E003D32FE621
:101A000032E143E050E478D4E4D49B0180E090E0FC
:101A1000213CB1E03B0758F4F5D228E431EE4AED21
:101A200050E451D327ED33EA40E852E40DC0223BA5
:101A3000354060F4E7D229E23CE54FED50E443D372
:101A400020E030E04EEF52E4F2D30BC0DBD22AE9C3
:101A500039E949EA50E437D320E030E64EE055E476
:101A6000E7D320E030E04AE754E446D460933D03F6
:101A700070933E0380933F039093400368EE73E0BE
:101A800080E090E0E8DC89E792E0CFDA60913D0306
:101A900070913E0380913F039091400323DB8EE7DA
:101AA00092E0D4DA809147038B3409F07AC01A822D
:101AB0001982FE01339685E0DF011D928A95E9F7D0
:101AC00048E050E060E072E08CE594E00E94510153
:101AD0008BE19EE40197F1F78CE594E00E94AC0164
:101AE0000797D4F38CE594E00E94AC01892B79F040
:101AF0008E010F5F1F4F8CE594E058D997FDF2CF10
:101B0000F80181938F01CE16DF06A9F7EBCF2C8168
:101B10004D81822F90E0807F99272F70820F911D39
:101B200024E0880F991F2A95E1F7242F30E054E034
:101B3000369527955A95E1F7820F931F64E0880F39
:101B4000991F6A95E1F74F70840F911D90933C03A4
:101B500080933B0368EE73E080E090E07CDC83E8F8
:101B600092E063DA60913B0370913C034B01770F85
:101B7000AA08BB08B7FE0EC06DE28FEB93E00E948F
:101B8000F50166277727CB01681979098A099B092E
:101B90004AE003C04AE0C501B40164DA89E892E092
:101BA00055DA809147038C3459F461E083E1CADB54
:101BB0006CED75E080E090E04EDC8EE892E046DA75
:101BC000809147038D3459F460E083E1BBDB6CED19
:101BD00075E080E090E03FDC83E992E037DA8091C5
:101BE00047038E3459F461E088E1ACDB6CED75E0BD
:101BF00080E090E030DC88E992E028DA80914703C9
:101C00008F3459F460E088E19DDB6CED75E080E095
:101C100090E021DC8DE992E019DA8091470380356C
:101C200059F461E089E18EDB6CED75E080E090E0D5
:101C300012DC82EA92E00ADA80914703813559F496
:101C400060E089E17FDB6CED75E080E090E003DC33
:101C500087EA92E0FBD980914703823559F461E02D
:101C600086E170DB6CED75E080E090E0F4DB8CEAFF
:101C700092E0ECD980914703843559F460E086E125
:101C800061DB6CED75E080E090E0E5DB81EB92E0FC
:101C9000DDD980914703853559F461E087E152DB56
:101CA0006CED75E080E090E0D6DB86EB92E0CED97B
:101CB00080914703863559F460E087E143DB6CEDA2
:101CC00075E080E090E0C7DB8BEB92E0BFD98091BC
:101CD0004703873559F461E08AE134DB6CED75E048
:101CE00080E090E0B8DB80EC92E0B0D980914703CF
:101CF000883559F460E08AE125DB6CED75E080E021
:101D000090E0A9DB85EC92E0A1D980914703893569
:101D100009F058C081E08093970380E48093B90371
:101D2000109298031092BA0365EE86E995E00E943E
:101D3000120381E0D5D883E090E02ED980914E0344
:101D400090E020914F03821B910903977CF086E974
:101D500095E00E94D202082F86E995E00E94D20207
:101D6000182F86E995E00E94D20202C010E000E040
:101D7000612F70E0702B80E090E044D120E030E0F3
:101D80004AEF52E4A0D120E030E040E857E39BD195
:101D900020E030E040EC50E44AD24B015C0160931B
:101DA0003703709338038093390390933A036CEDB3
:101DB00075E080E090E04FDBC501B40193D98AEC77
:101DC00092E044D9809147038A3509F053C081E0FD
:101DD0008093970380E48093B90310929803109244
:101DE000BA0360EE86E995E00E94120381E078D89C
:101DF00082E090E0D1D880914E0390E020914F0393
:101E0000821B9109029754F086E995E00E94D20264
:101E1000182F86E995E00E94D20202C080E010E00F
:101E2000682F70E0712B80E090E0ECD022E538EB79
:101E30004FE253E448D120E030E040E857E343D19B
:101E400026E636E64BE352E4F2D14B015C016093A7
:101E500033037093340380933503909336036CED12
:101E600075E080E090E0F7DAC501B4013BD98FEC72
:101E700092E0ECD810924603109245030E94620251
:101E800014CC61E087E05EDA8BE79CE00197F1F724
:101E900060E087E057DAC8010197F1F796CCEFEBE5
:101EA000F3E01382128288EE93E0A0E0B0E0848336
:101EB0009583A683B7832AE132E03183208345E30B
:101EC00051E05587448744E351E05787468740E314
:101ED00051E0518B408B41E351E0538B428B42E305
:101EE00051E0558B448B46E351E0578B468B118E66
:101EF000128E138E148EECE5F4E01382128284832A
:101F00009583A683B7833183208345ED50E05587C1
:101F1000448744ED50E05787468740ED50E0518BB1
:101F2000408B41ED50E0538B428B42ED50E0558B9E
:101F3000448B46ED50E0578B468B118E128E138EDC
:101F4000148EE9EFF4E01382128284839583A683D2
:101F5000B7833183208325EC30E03587248724EC58
:101F600030E03787268720EC30E0318B208B21EC66
:101F700030E0338B228B22EC30E0358B248B26EC47
:101F800030E0378B268B118E128E138E148EE6E97D
:101F9000F5E01382128284839583A683B7838CE253
:101FA00092E091838083E2EAF5E087E390E0918319
:101FB000808380E090E0A8ECB1E482879387A487D7
:101FC000B58780E090E0A0EAB0E482839383A483A5
:101FD000B58380E090E0A0E8B4E486839783A0878F
:101FE000B18788E090E09787868780E090E0A0E85E
:101FF000BFE381A392A3A3A3B4A3089540D008F4A0
:1020000081E00895E89409C097FB3EF4909580958F
:10201000709561957F4F8F4F9F4F9923A9F0F92FAE
:1020200096E9BB279395F695879577956795B7952C
:10203000F111F8CFFAF4BB0F11F460FF1BC06F5F12
:102040007F4F8F4F9F4F16C0882311F096E911C024
:10205000772321F09EE8872F762F05C0662371F045
:1020600096E8862F70E060E02AF09A95660F771F59
:10207000881FDAF7880F9695879597F90895990F35
:102080000008550FAA0BE0E8FEEF16161706E80742
:10209000F907C0F012161306E407F50798F0621B63
:1020A000730B840B950B39F40A2661F0232B242B38
:1020B000252B21F408950A2609F4A140A6958FEF57
:1020C000811D811D08950BD078C069D028F06ED095
:1020D00018F0952309F05AC05FC01124A2C07ED029
:1020E000A0F3959FD1F3950F50E0551F629FF0012B
:1020F000729FBB27F00DB11D639FAA27F00DB11D84
:10210000AA1F649F6627B00DA11D661F829F22270C
:10211000B00DA11D621F739FB00DA11D621F839F93
:10212000A00D611D221F749F3327A00D611D231F69
:10213000849F600D211D822F762F6A2F11249F57B7
:1021400050408AF0E1F088234AF0EE0FFF1FBB1FDA
:10215000661F771F881F91505040A9F79E3F510579
:1021600070F014C05EC05F3FECF3983EDCF38695E0
:1021700077956795B795F795E7959F5FC1F7FE2B24
:10218000880F911D9695879597F9089597F99F6700
:1021900080E870E060E008959FEF80EC08950024EF
:1021A0000A941616170618060906089500240A94BC
:1021B00012161306140605060895092E0394000C42
:1021C00011F4882352F0BB0F40F4BF2B11F460FFD1
:1021D00004C06F5F7F4F8F4F9F4F089557FD9058FA
:1021E000440F551F59F05F3F71F04795880F97FBDB
:1021F000991F61F09F3F79F0879508951216130695
:102200001406551FF2CF4695F1DF08C016161706C3
:102210001806991FF1CF86957105610508940895F8
:10222000E894BB2766277727CB0197F90895505884
:10223000BB27AA270ED0C1CFB2DF30F0B7DF20F026
:1022400031F49F3F11F41EF4A7CF0EF4E095E7FBA5
:102250009DCFE92FC3DF80F3BA17620773078407A6
:10226000950718F071F49EF5DBCF0EF4E0950B2E78
:10227000BA2FA02D0B01B90190010C01CA01A001D8
:102280001124FF27591B99F0593F50F4503E68F133
:102290001A16F040A22F232F342F4427585FF3CF74
:1022A000469537952795A795F0405395C9F77EF445
:1022B0001F16BA0B620B730B840BBAF09150A1F08E
:1022C000FF0FBB1F661F771F881FC2F70EC0BA0F14
:1022D000621F731F841F48F4879577956795B7959C
:1022E000F7959E3F08F0B3CF9395880F08F0992794
:1022F000EE0F9795879508950CD05FCF57DF40F08C
:102300004EDF30F021F45F3F19F040CF511189CFFB
:1023100043CF64DF98F39923C9F35523B1F3951B99
:10232000550BBB27AA2762177307840738F09F5FF6
:102330005F4F220F331F441FAA1FA9F333D00E2E65
:102340003AF0E0E830D091505040E695001CCAF7D2
:1023500029D0FE2F27D0660F771F881FBB1F261797
:1023600037074807AB07B0E809F0BB0B802DBF016A
:10237000FF2793585F4F2AF09E3F510568F006CF24
:1023800050CF5F3FECF3983EDCF3869577956795E9
:10239000B795F7959F5FC9F7880F911D969587951B
:1023A00097F90895E1E0660F771F881FBB1F62173A
:1023B00073078407BA0720F0621B730B840BBA0BF8
:1023C000EE1F88F7E095089504D06894B11129CFE5
:1023D00008950CDF88F09F5790F0B92F9927B751D7
:1023E000A0F0D1F0660F771F881F991F1AF0BA95D9
:1023F000C9F712C0B13081F013DFB1E0089510CFFA
:10240000672F782F8827B85F39F0B93FCCF38695CE
:1024100077956795B395D9F73EF49095809570952B
:1024200061957F4F8F4F9F4F089529DE08F48FEFFE
:10243000089525DE880B990B0895A1E21A2EAA1B98
:10244000BB1BFD010DC0AA1FBB1FEE1FFF1FA21764
:10245000B307E407F50720F0A21BB30BE40BF50B61
:10246000661F771F881F991F1A9469F760957095EA
:10247000809590959B01AC01BD01CF010895EE0FB1
:10248000FF1F881F8BBF0790F691E02D199481E004
:0A24900090E0F89400C0F894FFCF2C
:10249A00FE0400030001D5C512001300180019003C
:1024AA00160017001A0000000000F50151017B0117
:1024BA004102AC018A019E01000000001203E602FB
:1024CA004103C2024701D202C3024F4B2D41004FC2
:1024DA004B2D42004F4B2D43004F4B2D44004F4B89
:1024EA002D46004F4B2D53004F4B2D47434F322063
:1024FA004F4E004F4B2D48434F32204F4646002047
:10250A0050483A004F4B2D49002045433A004F4B63
:10251A002D4A0020434F323A004F4B2D4B004F4B70
:10252A002D4C004F4B2D4D004F4B2D4E004F4B2D38
:10253A004F004F4B2D50004F4B2D51004F4B2D52FA
:10254A00004F4B2D54004F4B2D55004F4B2D56002D
:10255A004F4B2D57004F4B2D58004F4B2D59004FC5
:10256A004B2D5A004F4B2D45000D0A006E616E002F
:08257A00696E66006F766600D1
:00000001FF
